:10000000803F00201D130000874D0000F11200000A
:10001000F1120000F1120000F112000000000000D7
:10002000000000000000000000000000BD0F000004
:10003000F112000000000000F1120000F1120000B7
:100040003D1000003D1000003D1000003D1000007C
:100050003D1000003D1000003D1000003D1000006C
:100060003D1000003D1000003D1000003D1000005C
:100070003D1000003D1000003D1000003D1000004C
:100080003D1000003D1000003D1000003D1000003C
:100090003D1000003D1000003D1000003D1000002C
:1000A0003D1000003D1000003D1000003D1000001C
:1000B0003D1000003D1000003D1000003D1000000C
:1000C0003D1000003D1000003D1000003D100000FC
:1000D0003D1000003D1000003D1000003D100000EC
:1000E0003D1000003D1000003D1000003D100000DC
:1000F0003D1000003D1000003D1000003D100000CC
:10010000F0B5214B214AC3F8002685B0C3F8042678
:10011000C3F80826C3F80C26C3F81026C3F8142623
:10012000C3F81826C3F81C2604F0ADF901A800F0A6
:1001300003FC174B1B68834200D0FEE74FF4E041FD
:10014000002005F033F8044600B1FEE769469DF84B
:10015000080004F077F9009B039D1D44019B1E8954
:1001600000F002FEAF1900F0D5FD01F013F9AB5914
:1001700083F3088884F31488BFF36F8FBFF36F8F06
:100180007B689847FEE700BF000001403546526E8D
:100190007400002021B1012906D06FF015007047CE
:1001A000044B53F830007047024B03EBC003586810
:1001B000704700BF085700002DE9F04F7E4FDDB0BB
:1001C000DDE9688914461D46DDF8A8B13E6800F0F7
:1001D0006BFD7A4B0122C3F800253CA803F072F8AE
:1001E000B8F1000F07D0B9F1000F04DD4A464146CF
:1001F0003CA804F00BFD23896289D4F80CA01344B9
:100200009A444FF00008C24551D80FA93CA803F00A
:10021000CBF86A4B0022C3F80025C3F80025BBF1D8
:10022000000F04D020220FA9584604F0DAFD002365
:1002300000932A464FF6FF73214609A804F024F9DB
:100240000390002844D128460E9C04F012FA844200
:100250003ED8DFF870B1DFF864914FF0FF340DF154
:100260001E0307AA08A909A804F05CF900282FDBDF
:1002700040F09B80BDF81EA0BAF1100F31D1BDF83F
:100280001C80B8F1200F23D1089943463CAA284688
:1002900004F0FAFCE0B942463CA90FA804F0BAF910
:1002A000474B1B68834213D101230393D7E7679B16
:1002B000669AAAEB0809994528BF99464B464146DC
:1002C000284604F0E1FC28B13C4B0022C3F800258D
:1002D0003E686DE066994A463CA804F097FCC84425
:1002E00091E7BAF1010F3FD1BDF81C30202BEFD8B8
:1002F00008993CAA284604F0C7FC04460028E7D128
:100300009DF81C300493202B0AD8DBF80030DFF86E
:10031000B8800593059B9C4205DB0023C9F8003596
:100320004FF0FF349BE700F0BFFCC9F800A51FA801
:1003300002F0C8FFD8F8042058F8081B12681FA85C
:1003400004F064FC17A91FA803F02EF80022C9F8D6
:100350000025049A3CA917A804F01CFD10B9C9F89F
:1003600000057CE70134D5E7BAF1220F7FF477AFBF
:10037000631C3FF474AFDBF80030A342D0DDBDF85E
:100380001C30802BA4D808993CAA284604F07CFC99
:1003900000289DD1E4B2BDF81C3000943CAA202175
:1003A0000FA800F013F80646BAE7039B002B8FD086
:1003B00030465DB0BDE8F08F0400002000A0025080
:1003C0007400002010570000145700002DE9F0477A
:1003D00096B016461D469DF87820374BDFF8E8802A
:1003E00053F83210019103EBC20307465B68D8F85B
:1003F0000090186802AA0144302301A804F094FB7D
:10040000002851D1DDE901431C4403AA06AB214673
:1004100001A804F0B1FB002846D1049A072A43D171
:100420002649059804F0B6FC00283DD1079A082A11
:100430003AD12349089804F0ADFCA8BB02AA214692
:1004400001A804F085FB78BBDDE901A30AEB0302F8
:10045000944229D1412B27D13544302303AA294680
:1004600002A8029604F060FBE0B9DDE90232134411
:100470009D4217D32A4602A906A804F09FF888B91E
:100480002A4602A90EA804F099F858B99AF8003043
:10049000042B07D1202306AA0AF10101384600F0F7
:1004A0001BFC28B1D8F80090484616B0BDE8F0878C
:1004B000044BD3F80090F7E7145700009F5A000050
:1004C000965A00007400002004000020094A0B78AE
:1004D000400052F820108B4209D0013052F8200021
:1004E000834214BF4FF0FF304FF4C07070474FF499
:1004F000C07070471C5700001FB50F4B13F8300039
:100500000C4600F063FC50B92068816810236A46ED
:10051000103904F0B9FB28B1206804F0B4FB4FF0A7
:10052000FF3006E005491022684604F033FC00283D
:10053000F2D104B010BD00BF1C570000865A000065
:100540002DE9F041324B88B0064600200D461C686C
:10055000FFF720FE06A9C0B200F038FC002853D1F6
:100560002946FFF717FE2C2407A9C0B204FB056437
:1005700000F02CFC00282ED02C276F4306EB070838
:10058000069BD8F8101011F0100133D14FF480728F
:100590000192204A0092CDE90311224602910846B9
:1005A000FFF70AFE04461C4BF25906989A420CD1FA
:1005B000D8F80C20B8F808309B1806D2826893420D
:1005C00003D2164B1B68A3421BD0C5B18268002121
:1005D00004F084FB13E0079804F09DFB074607989E
:1005E00004F051FB631EE21C13F8011FB942C3D192
:1005F0009342F9D11DB10699304604F00BF9084B2E
:100600001C68069804F03FFB204608B0BDE8F08166
:1006100004000020040E00203DB8F3967400002072
:10062000000000207FB50D46044600212846CDE994
:10063000021104F0AEF8E8B12368154EB34203D1BD
:1006400003AA204604F03AF8E36AB34204D102AAAE
:100650000121204604F032F8DDE90232934288BFDE
:100660000393039BAB60039A2946204600F03AFAB5
:1006700004B070BD01A9FFF73FFF019805F1080123
:1006800003F0DAFFAB680198039304F0FCFAEAE7A1
:100690003DB8F3962DE9F84FDFF878B01B4C1C4DB0
:1006A000884691469A4600260B9B9E4201D3002025
:1006B0000FE00B9B174A9F1BB7F5806F28BF4FF4C5
:1006C00080673B4606EB0A01404604F0DDFA10B1B4
:1006D0000120BDE8F88F0A993B465A4671184846F2
:1006E00004F0E7FA0028F3D1C4F800563E44C4F8F9
:1006F0000456C4F80856C4F80C56C4F81056C4F88A
:100700001456C4F81856C4F81C56CDE70000014032
:100710003546526E78080020F0B5824B43620E4693
:10072000814B0365002187B004460846FFF732FD80
:1007300004F12001C0B200F049FB01210020FFF7C5
:1007400029FD04F14C01C0B200F040FB204603F04B
:10075000F6FF002849D100221146204603F098FFF9
:10076000002859D1204604F04FF9002854D002A89F
:1007700004F006F80146204604F0A0F800284BD10A
:1007800002A804F006F880F0010102AAC9B22046CE
:1007900003F07EFF024600283ED102A803F0F9FFD5
:1007A0000546E8BB02A92046FFF73CFF9DF80F3045
:1007B00084F85830033B012B06D8284600F0E2F8B5
:1007C00010B1FF2384F858309DF80F30023B022B04
:1007D00006D8002000F0C0F810B1FF2384F858308C
:1007E00094F85830FF2B12D1FEE70123984284F889
:1007F0005830B0D194F858308DF80F30042B37D8DA
:10080000012B3BD84DD0FF2384F8583049E002AA91
:100810000021204603F03CFF012384F85830E9E72B
:100820009DF80F70012F17D1104601F05BFC831E5D
:10083000022B05460DD839462046FFF781FE3B4B7B
:100840001B68984205D03A4B1D68A84214BF052585
:10085000012584F85850CDE701212046FFF770FEAE
:10086000324B1B6898420CBF9DF80F300523D4E72C
:10087000052BC8D1002000F085F810E002A9204621
:10088000FFF7D0FE94F85830DA1E012A0ED8002067
:1008900000F078F80028B6D1002000F05DF80028BC
:1008A000B1D194F85830FF2B03D1FEE7022BF8D1D9
:1008B000F2E70021012B1F4D019113D002AA20461F
:1008C00003F0E6FE70B12D681022002102A804F0AA
:1008D00093FAE06C04F0D7F9206A04F0D4F92846C2
:1008E00007B0F0BD00212046FFF72AFE0F4F3B68FE
:1008F0008342E8D12A689A42E5D00D4A12689A42AA
:10090000E1D0019B01330193019B012B00D0FEE755
:10091000206A03F09DFD3071236A5B6834603D6896
:10092000B360D1E778040020780000207400002034
:10093000000000200400002038B5064D0446602267
:100940000021284604F058FA21462846FFF7E4FE25
:1009500038BD00BF780C002013B5094B01A913F86E
:10096000300000F033FA48B9019804F0DCFC04468A
:10097000019804F088F9204602B010BD0124FAE77E
:10098000245700001FB50F4B01A913F8300000F0E9
:100990001DFAA8B9019802A901F04EFB044668B9F6
:1009A0009DF80B30032B03D1019804F08AFC044618
:1009B000019804F068F9204604B010BD0124F7E75F
:1009C0000124F8E7245700002DE9F34106460C46C0
:1009D00017461D460BB9002628E0184603F0D9FE3D
:1009E0000028F8D16946FFF787FD009838B901243F
:1009F000009804F048F9204602B0BDE8F08101A952
:100A000003F01AFE0028F2D1009804F03CF93046B9
:100A1000019903F08FFF736A5E686B79012B21D116
:100A2000002CD8D12B68834298BF00262146002095
:100A3000FFF7B0FB6946C0B200F0C8F90028D6D174
:100A4000009820233A46314604F01EF90446002857
:100A5000CDD1002DCCD03C680D4BE41A18BF4FF01F
:100A6000FF34C5E7022BB6D12B68012B05D9834291
:100A7000B1D8B4FA84F46409ADE7ACD1002CD5D078
:100A8000012CA8D12C79023C18BF0124A3E700BF98
:100A90003DB8F39673B54B681446114A03F0FF2333
:100AA000934206460D4618D10B68012B15D16946B5
:100AB000204601F0C1FA9DF80030032B0DD12146EC
:100AC000304603F0A7FE204604F0FBFBA968204651
:100AD00003F0C0FD204601F08FFA02B070BD00BFE8
:100AE000000100042DE9F04F0C4689B0114605467F
:100AF00003F020FF6B6A039020465E6803F049FE16
:100B000090B1E86D03F088FDAB6A0022013B3244EE
:100B1000904201D9013BFAE7039A934204D801239A
:100B2000E37109B0BDE8F08F06A9022000F04EF98C
:100B300007A9052000F04AF9079A21462846FFF741
:100B4000A9FF6379012B4BD1039FDFF858B141E036
:100B500022680399C2F101030B44BB4239D36B6A8B
:100B6000196853F8370003EBC703012A53F8083C10
:100B7000A0EB0109A3EB010A11D1079B0493E368E1
:100B8000022B08D04146284603F044FE2246414647
:100B9000284603F074FE0499284603F03BFE3246D3
:100BA0004946404603F034FE534642464146CDE9AD
:100BB00000962846FFF76EFD2146284603F0F6FD15
:100BC00023680133236020B1DBF800300133CBF818
:100BD0000030013FDDF81880002FB9D101232360D8
:100BE000022363710127039BDDF818909F4206D909
:100BF000484604F048F8079804F045F891E7236860
:100C0000BB424DD86A6ADDF81CA052F83710D2F802
:100C100000B00491FB00083BD1582A6DD0581368EE
:100C2000A0EB03082379012B38D1A1EB0B0132464D
:100C30004846059103F0ECFD0599009143464A466C
:100C4000514601962846FFF725FD2146284603F028
:100C5000ADFD0223237118B1124A136801331360EA
:100C600032464146504603F0D3FD049B5246A3EB67
:100C70000B034946CDE900862846FFF70BFD2146C8
:100C8000284603F093FD2368013323600123237179
:100C900030B1044A13680133136001E0022BDFD046
:100CA0000137A0E7D80C002070B5094D2B780BB1A7
:100CB000002070BD074C0126C4F8006502F0A4FBBB
:100CC00018B92E70C4F80005F2E74FF0FF30F0E7D6
:100CD000040F002000A002502DE9F041DFF8308021
:100CE000ACB01F4606460C461546FFF7DDFF012354
:100CF000C8F800352A4633460097214603A804F079
:100D0000A9FB0023C8F800352CB0BDE8F08100BF76
:100D100000A00250BFF36F8F72B6124B4FF0FF323C
:100D2000C3F88020C3F88420C3F88820C3F88C203F
:100D3000C3F89020C3F89420C3F89820C3F89C20EF
:100D4000C3F88021C3F88421C3F88821C3F88C211B
:100D5000C3F89021C3F89421C3F89821C3F89C21CB
:100D6000704700BF00E100E0164A4FF0FF33012159
:100D70005160C2F84833C2F8083302F5C0425160EE
:100D8000C2F84833C2F8083302F598325160C2F80D
:100D90004833C2F80833A2F508320021C2F8001522
:100DA000C2F8083302F51832C2F80015C2F8083349
:100DB000A2F51042C2F808354FF08042C2F808335D
:100DC000704700BF00B0004001F0F8B970B5114B9A
:100DD0001C680D46DCB1104B196800238B4202DB06
:100DE0006FF0010070BD224612F8106B864202D0EF
:100DF00001331446F2E7E06810B96FF01200F1E732
:100E000004F007FB0028F8D02C600020EAE76FF020
:100E10000C00E7E7080000203057000070B588B0EC
:100E200005460C46C0B269461646FFF7CFFF0028BC
:100E30001BDB0098C8B14368029383682268019560
:100E4000CDE903360023CDE906230593C56803F0F9
:100E50001AFF6DB12846084901AA04F029F907983C
:100E600008B9059B236008B070BD6FF01500FAE764
:100E70006FF01200F7E700BF254D0000014801F0B8
:100E800069BF00BFC4570000014910220A607047C3
:100E900010ED00E072B6404080F31188BFF36F8F11
:100EA000BFF34F8F30BF62B6BFF36F8F704700BF85
:100EB00072B6494081F31188BFF34F8F20BF80F392
:100EC000118862B6704700BF40B2002807DB044AB1
:100ED0004109012300F01F00834042F82130704790
:100EE00000E100E040B200280CDB4309064900F0B5
:100EF0001F0020330122824041F82320BFF34F8F8F
:100F0000BFF36F8F704700BF00E100E0054B42095F
:100F100000F01F0053F82220012303FA00F01040D4
:100F2000704700BF00E100E040B20028A8BF00F118
:100F3000604001F10101B8BF064B4FEA4111ACBF5F
:100F400000F5614000F00F00C9B2B4BF195480F839
:100F50000013704714ED00E030BFFFF7FDBF00BF86
:100F6000144A08B5144B22F07F029A60BFF34F8FEA
:100F7000BFF36F8FD3F8882022F47002C3F8882063
:100F8000D3F8882042F4A002C3F888204FF04042F2
:100F9000C3F83422BFF34F8FBFF36F8F0023E1EE0E
:100FA000103A01F02BFE01F071FE00F0ABF901F0F8
:100FB00031FE00BF0000000000ED00E01EF0040F55
:100FC0000CBFEFF30880EFF30980816911F8021C70
:100FD0000229FFD001B503F0CEFE01BD10F1160FBE
:100FE000074B08D0984208D34033834205D98B423F
:100FF00003D9044870474033F9E70020704700BF29
:1010000080170020C01700200446084611461A46E3
:101010000023E1EE103A084B202583F3098863B6DC
:101020004FF0000383F31188BFF36F8FA04785F360
:101030001188BFF36F8FFEE7C03F002001B5EFF3CB
:101040000580A0F110004FEAC0000449014409C91D
:101050009847BDE8014002490847000018550000C4
:1010600065100000704700BF70B5264B15469A6AA0
:1010700012F0100F9A6A14BF1124102412F0080FF6
:101080009A6A18BF1224920706460AD5586B9A6AC4
:10109000140634D519B19A6A22F080029A62132498
:1010A00001E06FF01500174B9A6A12F0010F9A6A6F
:1010B00018BF142412F0200F9A6A18BF1524D20604
:1010C00002D49B6A9B070AD50E4B5B68190506D5AF
:1010D0003146FFF783FF10B180F309880224094BE2
:1010E0009A6A920642BF5A6A22F400525A629A6A77
:1010F00042F0FF029A6200232B70204670BD6FF011
:101100001500CCE700ED00E0134B9A6A12F0007F67
:101110009A6A14BF1E201D2012F0807F9A6A18BFA1
:101120001F2012F4002F9A6A18BF212012F4802F7A
:101130009A6A18BF222012F4003F9A6A18BF23202F
:1011400012F4803F9A6A6FEA02426FEA12429A6290
:1011500018BF2420704700BF00ED00E010B5184B09
:101160000246986A9C6A10F4805F14BF172016200C
:1011700014F4006F9C6A18BF1820A40508D5986A5B
:10118000000404D51AB19A6A22F400429A62192026
:101190000B4B9A6A12F4806F9A6A18BF1A20D20514
:1011A0000CD49B6A13F4005F18BF1C20044A936A96
:1011B00043F47F43936200230B7010BD1B20F5E7BF
:1011C00000ED00E070B5454B5B688AB00546C3F39F
:1011D0000803002686F31188BFF36F8F02F07F406B
:1011E000B0F17F4F11D102F00C0008280DD010078C
:1011F0004CBF0D4601260022033B8DF80720032B30
:1012000005D8DFE803F01E5D615A3546F3E7002498
:101210009DF807309BB92022294602A803F0E1FD82
:10122000099B002E54D0C3F3080222B96FEA53235E
:101230006FEA4323099302A9204603F09AFD0AB0FE
:1012400070BD264BDA6A9107E1D4DA6A002ADEDB48
:10125000DA6A5200DBD55A69A96942F480725A6190
:10126000BFF34F8FBFF36F8F5A6931F8021C22F41E
:1012700080725A61BFF34F8FBFF36F8F4DF60272CA
:1012800091420AD09A6AD2B24AB10DF10702012105
:101290002846FFF7E9FE0446BAE72C68B8E79A6AE1
:1012A00012F47F4F05D00DF107010120FFF756FF23
:1012B000F1E79B6AB3F5803FA9D3FFF725FFEAE783
:1012C0000DF107020021E3E70DF107010020EDE732
:1012D00023F4FF7323F00103ACE700BF00ED00E04F
:1012E000024A536943F010035361704700ED00E078
:1012F000EFF30880EFF3098101B57246FFF762FF53
:1013000001BD00BF044800232021C2180133302B47
:1013100082F80013F9D1704700E100E0002080F36B
:101320001488BFF36F8FFFF74FFD00200D49086051
:10133000BFF34F8F0C4880F3088800F03DF8202061
:1013400080F3118809484FF40461401880F309883C
:10135000EFF314800221084380F31488BFF36F8FEA
:10136000FFF7FEFD94ED00E0803F0020400F0020DD
:10137000BFF34F8F0549064BCA6802F4E06213437E
:10138000CB60BFF34F8F00BFFDE700BF00ED00E073
:101390000400FA050749D1F890200023C2F3072280
:1013A0001846934200DB7047C1F89830C1F8A0009E
:1013B0000133F6E700ED00E008B572B6002383F3D1
:1013C0001388FFF7E7FF144B4FF0FF32C3F880207C
:1013D000C3F88420C3F88820C3F88C20C3F8902079
:1013E000C3F89420C3F89820C3F89C20C3F8802148
:1013F000C3F88421C3F88821C3F88C21C3F8902155
:10140000C3F89421C3F89821C3F89C2162B6BFF3B6
:101410004F8FBFF36F8F08BD00E100E0024B034A1E
:101420000348022100F060B8000004200000002002
:10143000CC570000F0B5204E00258D4239DA4468C3
:1014400074B353B104F1FF3C14EA0C0F2FD11F2CDD
:101450002DD907681CEA070F29D1202C0768D0F87E
:1014600008C05FFA82FE1ED9B4F1004F1DD8013CBE
:10147000B4FA84F4C4F11F046400BEF1070F4CEA0F
:10148000040C14D827F01F04144344F01004C6F8C9
:101490009820C6F89C404CF00104C6F8A0400132E8
:1014A00001350C30C9E70824E7E73E24E5E76FF093
:1014B00015021046F0BD00BF00ED00E0044B052210
:1014C000C3F89420BFF34F8FBFF36F8F704700BFF7
:1014D00000ED00E0BFF35F8F024B0022C3F89420C1
:1014E000704700BF00ED00E010B5034C01232278E7
:1014F000FFF7A0FF207010BD050F002014490868F9
:10150000082810B521D8FFF7E5FF124C49680022E2
:10151000904201F10C0105D10F4B1870FFF7CEFF7F
:10152000002010BDC4F8982051F80C3C23F01F0394
:10153000134343F01003C4F89C3051F8043C43F0CB
:101540000103C4F8A0300132E2E74FF0FF30E8E7D2
:10155000E457000000ED00E0050F00204FF080434D
:1015600001224FF08051C3F87825D1F830010828C6
:1015700008D1D1F83411052904D80648415C09B1D5
:10158000C3F838264FF080430122C3F8802500209D
:10159000704700BF265B000020B1034B800143F081
:1015A00001031847704700BF00570000084B70B593
:1015B000C31A0D4607499B1004465943064840226A
:1015C00003F03FFC2B4601462046BDE8704018471B
:1015D000DC0C0020B76DDBB6DC54000073B50C4C9E
:1015E0000C4A4023041B00930D460B460A49A410E5
:1015F00061430646094803F051FC011E05DA3046F6
:101600002B4602B0BDE87040184702B070BD00BF65
:10161000DC0C00200F4F0000B76DDBB6DC5400007F
:1016200010B54FF02003EFF3118483F31288BFF35A
:101630006F8F074A136823F00201DB07116002D4A1
:10164000012003F0C4FE84F31188BFF36F8F10BD37
:101650002C0D0020002270B5012104461046FFF732
:1016600063FC0F4800F0F8FE0E4B984215D103F0D2
:1016700065FE26690C49304603F0E3FA00280BDBCF
:10168000012535642469084904F11C0003F0D9FAE6
:10169000002801DBE564002070BD6FF00400FBE76B
:1016A000E11600000000AD0B0458000070B50146C3
:1016B0000C2309484B43C418D4E90E56403300228A
:1016C0001844A26303F0AAFB2DB132462B4603480F
:1016D000BDE87040184770BDDC0C0020DC540000F1
:1016E00010B1012804D07047034B1B6C5B0701D17C
:1016F000FFF7DCBF704700BFDC0C002008B54FF0DF
:101700002003EFF3118183F31288BFF36F8F124A26
:10171000136843F002001060DA0708D481F31188DF
:10172000BFF36F8F0120BDE8084003F014BE4FF0F7
:101730008043D3F80C24D3F80C34DB07EED50748EC
:1017400003F06CFB81F31188BFF36F8F0020BDE8BD
:101750000840FFF7ABBF00BF2C0D00201C0D002080
:1017600000F1744000F5A6000A289ABF024B33F935
:1017700010006FF00F007047705A0000024B0B60B2
:1017800001231360704700BFB8580000004870473D
:101790003C58000010B5026953787BB9084C217899
:1017A00051B90849406801F097F8FFF7D9FF03469F
:1017B000B0FA80F040092070184610BD0023FBE706
:1017C000080F00202F4F00000C4B994210B5044623
:1017D0000FD14FF02003EFF3118083F31288BFF392
:1017E0006F8F237833B10023237080F31188BFF308
:1017F0006F8F10BDFFF75CFBEBE700BF0000AD0B88
:1018000010B543784BB9084C01F0DEF8A04205D181
:1018100001F0FCF8054B00221A7010BD4CF250305C
:1018200003F0F2FDF0E700BF0000AD0B080F002051
:101830002DE9F04F074685B088461C461646002A1B
:1018400000F09380002B00F08E8000294268C0F2E7
:101850008C80926ACB18934200F28780FFF79AFF40
:101860000546002878D1C8F1000505F00305A5421A
:1018700028BF2546734203F0030306F0030958BF4F
:10188000C3F10009C9F1000909F00309A14528BF06
:10189000A146631BA4EB090424F0030423F0030A0C
:1018A000A245C8BFA24603F0030BC8BFA3EB040BBD
:1018B000BAF1000F18D006EB090308EB05025146F8
:1018C0001846019303F099FD044601463869FFF775
:1018D0007BFF274A94423BD14D4505D0019B5246A0
:1018E0001946701903F066FABDB1C5F10409A8EBF9
:1018F0000902042102A803F080FD0446014638696C
:10190000FFF762FF1A4B9C4222D109F108032A46D5
:101910000DEB0301304603F064FABBF1000F16D063
:10192000082108EB050252440DEB010003F065FDB0
:10193000044601463869FFF747FF0D4B9C4207D12B
:101940000AEB05005A4602A9304403F04AFA084C53
:101950002046FFF705FF05463869FFF751FF284687
:1019600005B0BDE8F08F1D46F9E76FF01505F6E705
:101970000000AD0B2DE9F34705460F461E46904685
:10198000002A76D0002B74D0042B01D99A0770D18D
:10199000BB076ED1002F6A686BDB926ABB1993425A
:1019A00067D82846FFF7F6FE044650B903F00FFB50
:1019B000044668B1012003F00AFB2046FFF7D0FE81
:1019C00004462869FFF71CFF204602B0BDE8F087F7
:1019D000032E1ED804213A460DEB010003F00DFD45
:1019E000044601462869FFF7EFFE234B9C4235D1A0
:1019F0003246414601A803F0F4F904213A460DEBC2
:101A0000010003F0F7FC044601462869FFF7DCFEFD
:101A100024E008F06043B3F1005F02D118F0030F37
:101A200023D0DFF854A0042EB14628BF4FF004099C
:101A30004A46414601A803F0D4F93A46494601A86E
:101A400003F0D8FC044601462869FFF7BDFE544563
:101A500004D1B6EB0906C8444F44E4D1012003F099
:101A6000B6FA002C08BF0446A7E73A46314640467E
:101A7000C7E76FF01504A7E70000AD0B70B543682A
:101A80001D6B86B0044603AA0021284603F03CFBE8
:101A900000285BDB039B2A681979186800F0C6F9F7
:101AA000002853DB002201212920FFF73DFA656859
:101AB00022693949284600F00FFFFFF751FE002840
:101AC00044DB0021AB2303A8CDE9031105918DF878
:101AD0000C3003F030FA002838DB232003F094FCAC
:101AE0006B7F023B012B33D92D7F033D012D8CBF32
:101AF0000025012503F050FA002827DBC2B2C0F30D
:101B00008010854201AD25D12069FFF779FE0326BB
:101B10000023CDE90263049320469F23CDF804D02F
:101B20008DF80C300595FFF735FE014670BB03A814
:101B300003F001FA05462069FFF762FE4DBB6068BD
:101B4000324669462C3003F025F910BB06B070BD53
:101B50000125CFE70023012182F0400203A8CDE94F
:101B60000213ADF80030CDF804D08DF800200593B5
:101B70008DF80C10049503F0DEF90028E6D103F08F
:101B80000BFA0028E2DBC307F9D4BDE72069FFF7B1
:101B900037FE6FF01200D9E72F4F00002DE9F84F04
:101BA0000D1ED0F80490804617465CDBD9F828302B
:101BB000AA189A4257D8C5F30B02002F53D0C7F387
:101BC0000B0313434FD1FFF7E5FD0446F0B903F0D3
:101BD000FEF90446D0B9DFF898A0D9F82830BB4206
:101BE0001BD103F00DFCBB460646D8F81000314669
:101BF000FFF7EAFD564526D1B7EB0B075D44ECD164
:101C0000012003F0E4F9002C08BF0446D8F81000C6
:101C1000FFF7F6FD2046BDE8F88FB7F5803F09D302
:101C2000ABB2ABB92946012000F046FF4FF4803B30
:101C30000646DAE7B7F5805F0AD20C49D8F81000FB
:101C40000A4EFFF7C1FD3046FFF78AFD0446D7E78D
:101C5000C5F30B000028F0D1294600F02DFF4FF40A
:101C6000805B0646C1E76FF01504D3E70400AD0BB7
:101C70000000AD0B024B0B6001231360704700BFE7
:101C8000300D002000487047D458000010B503F014
:101C9000AAFB034C206003F0A2FB6060002010BD93
:101CA000300D00204FF08042D2F81015D2F81035D8
:101CB00001F01E0123F01F030B4343F00103C2F8A0
:101CC0001035024B00221A70704700BF090F002028
:101CD0004FF08053D3F83031082B20D14FF08042A1
:101CE000D2F81015CB071AD5D2F8103501F01E0125
:101CF00023F01F030B43C2F81035D2F808315BB153
:101D0000D2F8103523F01F030B4343F00103C2F850
:101D100010356FF08B007047024B01221A700020C3
:101D2000704700BF090F00202DE9F0410D4616460F
:101D300003F055FB31460746284603F05DF928B30A
:101D4000B5FBF7F307FB135303BBB6FBF7F407FB35
:101D50001464DCB9B74213D803F041FBDFF83480D8
:101D60000746FFF7B5FF044668B9284600F0C4FBF4
:101D700098F800300BB1FFF795FFF61B3D44F0D10A
:101D80002046BDE8F0816FF08B04F9E76FF0150491
:101D9000F6E700BF090F00202DE9F8430E46304654
:101DA000194617461C4603F027F930B346EA0405E6
:101DB00015F0030521D11CB3DFF84C906319032BF8
:101DC000A6EB050807D80F4AD2F80034DB07FBD58D
:101DD0000020BDE8F883FFF77BFF58B97B1B404626
:101DE000196800F0A9FB99F800300BB1FFF75AFF12
:101DF000043DE3E76FF08B00EBE76FF01500E8E7D9
:101E00002046E6E700E00140090F0020036803F0E8
:101E10001F025B09026004D0012B034818BF002099
:101E200070474FF0A0407047000300502DE9F04F7D
:101E3000DFF8849185B01546824600EB81014FF0B2
:101E40000108514503D1002005B0BDE8F08FDAF854
:101E5000003003F07F04C3F343277F2C4FEA134382
:101E600008BF4FF0FF34222B00F2A380DFE803F01D
:101E700012232B442E3544A1A1A1A14773A1A1A1F6
:101E8000A1A1A1A1A1A176818487A1A1A18A9093FA
:101E900096999C00C5F80C45601C1BD003A80394C0
:101EA000FFF7B4FF039B08FA03F3C0F808350126D7
:101EB0004FF0010B2CE0C5F81445631C0AD0002636
:101EC0004FF0000B24E0C5F80845E5E7621CC5F8B3
:101ED00008456CD10AF1040AB3E7631CC5F80C4548
:101EE000F8D0012603A80394FFF790FF039B08FA9C
:101EF00003F3C0F80C35DBE7C5F81045DDE7C5F89E
:101F00000845002FD9D1671CE4D00026B346062728
:101F1000DAF80030019303F40052002A03A81CBF32
:101F200001264FF0000B0394FFF770FF039A019B0B
:101F300000EB8200C3F3C114D0F800273B0243EA50
:101F4000840343EA0B0302EA0902134343EA46030C
:101F5000C0F80037BEE7C5F80C45D2E7C5F86045C4
:101F6000661CDAF80030B5D0C3F38033002BB8D04C
:101F700094E7C5F86445F3E7C5F86845F0E7C5F8A8
:101F80006C45EDE7C5F82445621CA3D0012697E710
:101F9000C5F8284580E7C5F83045F5E7C5F834456C
:101FA000F2E7C5F83845EFE7C5F83C45ECE7002611
:101FB00098E76FF0850047E7F0F8FCFF30B50C4973
:101FC0000C4D0B680246002405EB0310D0F80808FE
:101FD000C0B218B904B10B60002007E00133072B31
:101FE0004FF00104F0D90B606FF01B00136030BD9F
:101FF000380D002000E0014030B5816885B010390F
:1020000021F00704054602F086FE102201466846CC
:1020100002F0F2FE07491022684602F0E2FE1023A9
:102020006A462146284602F044FE003818BF0120C7
:1020300005B030BD865A000030B50D46816887B0C6
:10204000102302AA1039044602F01EFE002802DA0C
:10205000012007B030BD102202A9204603F0CCF8C1
:1020600000283AD11E49102202A802F093FE00284F
:102070000CBF012302232B70204603F0A9F8012393
:1020800001460DF10702204602F0FEFD0028DFDBCD
:102090009DF8073003F00F021B096A702B710122B3
:1020A0000DF10701204603F0A7F810B96B78042B57
:1020B00003D901236B7000232B71A268183A22F018
:1020C0000702083AA91C204603F0A9F80028BFD14E
:1020D000E91C204603F0FCF8BBE70323CBE700BF75
:1020E000865A00007FB5264D4400694655F8240005
:1020F00003F0F4F8002835D1013402A955F8240082
:1021000003F0ECF801282BD103238DF808308DF86B
:102110000B309DF800509DF808601A4A0024107892
:10212000294603F05BF818B35078314603F056F8AF
:10213000F0B19378042B03D09DF80310994217D186
:10214000D378042B03D09DF80B10994210D113794A
:10215000042B09D15079831E022B03D804B070BD23
:102160000028D6D0FF20F9E79DF802109942F1D05F
:102170000134032C02F10602D1D10120EEE700BFA9
:10218000DC580000935B00004FF08053D3F83021FF
:10219000082A06D1D3F83431052B02D8024AD05C84
:1021A00070470020704700BFAB5B0000024AD2F8C6
:1021B0000034002BFBD0704700E0014010B54FF019
:1021C0008053D3F83021082A4ED14FF080420021AD
:1021D000C2F80C11C2F81011C2F8381502F54042CD
:1021E000D3F80414C2F82015D3F80814C2F8241543
:1021F000D3F80C14C2F82815D3F81014C2F82C1513
:10220000D3F81414C2F83015D3F81814C2F83415E2
:10221000D3F81C14C2F84015D3F82014C2F84415A2
:10222000D3F82414C2F84815D3F82814C2F84C1572
:10223000D3F82C14C2F85015D3F83014C2F8541542
:10224000D3F83414C2F86015D3F83814C2F8641502
:10225000D3F83C14C2F86815D3F84014C2F86C15D2
:10226000D3F84434C2F87035FFF78EFF18B1414BF4
:10227000414AC3F88C26FFF787FF18B13F4BFB227A
:10228000C3F81825FFF780FF70B14FF080414FF081
:102290008053D1F8E42ED3F8583222F00F0203F025
:1022A0000F031343C1F8E43EFFF76EFF20B1344B38
:1022B0004FF40072C3F840264FF08053D3F830310A
:1022C000082B09D14FF08043D3F80024D20744BF34
:1022D0006FF00102C3F800242A4AD2F8883043F490
:1022E0007003C2F88830BFF34F8FBFF36F8F4FF08A
:1022F0008053D3F83021082A0ED1D3F83431052B7E
:1023000002D8214AD35C3BB14FF01023D3F8082206
:102310004FF08043C3F858254FF01023D3F8002224
:10232000002A03DBD3F80432002B22DA17490123F9
:102330004FF01020C1F804351224FFF737FFC0F822
:102340000042FFF733FFC0F80442FFF72FFF0023DE
:10235000C1F80435FFF72AFFBFF34F8F09490C4B33
:10236000CA6802F4E0621343CB60BFF34F8F00BF33
:10237000FDE710BD005000404881030000F0004020
:102380000090024000ED00E0A55B000000E001408D
:102390000400FA05F7B5044618B1012823D003B0AC
:1023A000F0BD4FF080430222C3F80823C3F80401B4
:1023B000D3F804210122DA60064601238DF80730A4
:1023C00042F210754FF08047D4B1012CE7D1D7F815
:1023D0000C3403F48033AEBB83B3012002F0ACFFB6
:1023E000013DF4D12AE04FF080430022C3F80803F6
:1023F000C3F80021D3F8002158600DF10706DCE78F
:10240000D7F8183403F480333EB9002BC7D001202D
:1024100002F092FF013DF3D1C1E7D7F8182402F092
:1024200003023260002BBAD09DF80700012803D1C7
:1024300002F082FF013DC7D1012CB0D1054B002233
:102440005A71ACE7D7F80C2402F001023270002B6D
:10245000EAD1F3E73C0D0020044B1A7922B901229E
:1024600018609A8002487047024870473C0D00206F
:102470000000AD0B0C00AD0B10B54FF08043D3F84E
:1024800000216AB10022C3F80021D3F80021012203
:10249000C3F80823114B587910B95A711B68984733
:1024A0004FF08043D3F8042172B10022C3F8042115
:1024B000D3F80421D3F81824D3F81824920704D1B0
:1024C0000122C3F818259A6010BD0222C3F8082320
:1024D000024BBDE810401B68012018473C0D00204E
:1024E000044AD2F80034DB07FBD50160BFF35F8FED
:1024F000704700BF00E001404FF080531A69B0FB05
:10250000F2F302FB130373B9084B0222C3F804254C
:10251000C3F80805D3F80024D207FBD500220448ED
:10252000C3F8042570470348704700BF00E001402E
:102530000000AD0B0A00AD0B10B5054C0123C4F82B
:102540000435FFF7CDFF0023C4F8043510BD00BFEC
:1025500000E0014070B500F06044B4F1005F66D166
:10256000840764D1344D95F83040012C01D09C4251
:102570005FD12C6804BB022B304B0BBFC3F8102576
:10258000C3F80425C3F81405C3F808050BBFC3F846
:102590001815C3F80C15082204220021C3F80011F5
:1025A00002F1804303F5243301221A60234AD2F852
:1025B0000031002BFBD00DE0AE68204C66B1022B41
:1025C000E8606961EA612BD1C4F81025C4F81405EC
:1025D000C4F818151A4870BD022B85F830300CBFAE
:1025E000082304232961AA61A86003F180430BBF7B
:1025F000C4F81025C4F80425C4F81405C4F8080567
:102600000CBFC4F81815C4F80C150C49002203F5CA
:102610002433C1F800210122C1F804231A60D9E74C
:10262000C4F80425C4F80805C4F80C15D2E7054819
:10263000D1E70548CFE700BF440D002000900240DD
:102640000000AD0B0A00AD0B0B00AD0B38B5074D0C
:102650004CF25034D5F8003133B90A2002F06CFE48
:10266000013CF7D1024838BD0248FCE70090024027
:102670000700AD0B0000AD0B084B9A685A621A694F
:102680009A629A69DA62DA689A6032B15A691A61B2
:10269000DA699A610022DA6070477047440D0020C1
:1026A00000F01F0340090FD0012810D10B4A02EBA4
:1026B00083020B4BD2F80007034043EA012343F0A7
:1026C0000203C2F8003770474FF0A042EFE7002244
:1026D00003F5E07352F82330FFDE00BF0003005023
:1026E000F0F8FCFF10B50E4B0238D3F83C26D3F8B7
:1026F0003836072813D8DFE800F0110F0D0B0A0851
:102700000604100EC871100C8871100A48710A7105
:102710001A0ECA701A0C8A701A0A4A700B7010BD11
:1027200000900240023807281FD8DFE800F0292770
:10273000251123211F04CB791B068A7943EA024322
:102740004A7943EA02230A7913430E4AC2F83C3617
:10275000CB781B068A7843EA02434A7843EA02238D
:102760000A781343074AC2F8383670470023E4E773
:102770000023E5E70023E6E70023EBE70023ECE78F
:102780000023EDE70090024070B590F82530044634
:102790001BB190F82620002A55D16068FF2800F070
:1027A0008F80A268FF2A00F08B80E268FF2A00F089
:1027B00087802269FF2A00F08380B3B90321FFF7E5
:1027C0006FFFA068FFF76CFFE068FFF769FF206903
:1027D000FFF766FF6069FF2801D0FFF761FFA0697E
:1027E000FF2802D00321FFF75BFF94F8263053BB8C
:1027F0006268344BFF2A08BF4FF0FF32C3F824252C
:10280000A268FF2A08BF4FF0FF32C3F82825E2680C
:10281000FF2A08BF4FF0FF32C3F830252269FF2A94
:1028200008BF4FF0FF32C3F834256269FF2A08BFA2
:102830004FF0FF32C3F83825A269FF2A08BF4FF0D6
:10284000FF32C3F83C25204E94F825301D4D86F804
:1028500031300023C5F8003101232B60FFF7F6FE6D
:102860001A4B98422BD02368C5F84035A37F617F6F
:10287000227F9B0143EAC1031343E27F43EAC21371
:10288000C5F84435D5F8002694F8203022F07F4270
:1028900022F0FF02134394F8212043EA026394F8E4
:1028A000222043EA426394F8232043EA0273C5F8E6
:1028B0000036336813B12920FEF706FB044870BDCB
:1028C0000448FCE700900240440D00200700AD0BD7
:1028D0000000AD0B0400AD0B38B5114C94F830502E
:1028E000E5B9C4E900120F4A0121C2F8081378B90A
:1028F0000021C4E902110B4B012284F83020C3F8F7
:102900000025C3F800111A60BDE83840FFF79EBEED
:10291000FFF73AFF044B9842EAD038BD0348FCE782
:10292000440D0020009002400000AD0B0500AD0BEF
:102930002DE9F04115461F4A92F83020012A04463D
:1029400035D111B14078FFF7EDFE1B4EDFF86C80FA
:1029500001230027C6F80833C6F800713360FFF77B
:1029600075FE404502D11548BDE8F081C6F80071FA
:10297000A37862781B0343EA022322781343E278A8
:1029800043EA4233227943EA8233627943EAC2332B
:10299000C6F83436FFF75AFE4045E4D0C6F8007159
:1029A0001DB160782946FFF79DFE0548DCE7054824
:1029B000DAE700BF440D0020009002400700AD0B95
:1029C0000000AD0B0B00AD0B1FB50D4A02920DF1CF
:1029D00007020023114602A88DF80730ADF80C302D
:1029E000FFF7A6FF074B984206D19DF8073013F07A
:1029F000010F054B18BF184605B05DF804FB00BF7A
:102A0000050200010000AD0B0B00AD0B2DE9F843F2
:102A10002920FEF767FA254B254ED3F8342602F419
:102A20004032B2F5803F04BF224AC3F834264FF04B
:102A300080510122C3F808231A61D1F83011082906
:102A400008BF5A65194B0022C3F80025C3F80021BE
:102A500096F831202ABBD3F82405D3F82895D3F86B
:102A60003085D3F83475D3F83855D3F83C45C0B227
:102A700002F0BDFC5FFA89F002F0B9FC5FFA88F061
:102A800002F0B5FCEDB2F8B202F0B1FCFF2DE4B2F9
:102A900002D0284602F0ABFCFF2C02D0204602F008
:102AA000A6FC002386F83030BDE8F8830090024091
:102AB000440D0020000103008B0721D1124A136846
:102AC0001BB192F83030012B1CD1042382F8303036
:102AD0000E4BC3F81C150021C3F82005C3F80011E4
:102AE0000121D960106840B9D3F800110029FBD04A
:102AF000012382F8303006487047C3F80413FAE720
:102B00000448704704487047440D0020009002407C
:102B10000000AD0B0A00AD0B0B00AD0B10B5174B51
:102B2000D3F80021E2B10022154CC3F8002194F83B
:102B30003020032A15D0042A15D0022A04D10123FB
:102B400084F82030FFF798FDA36813B9012384F8B7
:102B50003030D4E9003100209847002384F8203039
:102B600010BD0223ECE7032284F82020D3F81C25B3
:102B70006262D3F8203584F82830E5E700900240FF
:102B8000440D0020104B70B553F82040013053F82D
:102B90002060A64200D870BDD4E9003595B153B18C
:102BA0002846984738B10028B8BF4042EB68FF2854
:102BB000A8BFFF201870EA68537843F001035370F0
:102BC0000834E6E79847FBE7E458000008B5094BEE
:102BD000012203201A70FFF7D5FF02F039FC042010
:102BE000FFF7D0FFFDF78CFA034A137B23F00103B4
:102BF000137308BD0A0F0020780D002008B50348A4
:102C0000034A0021121A02F01FFC08BD74000020C4
:102C10000C0F002008B50020FFF7B4FF184B83F31A
:102C20000888184C636943F4007363610025E0234E
:102C300084F82230E57725766576A57684F82050ED
:102C4000636A43F4E023636284F82350FEF748FB91
:102C5000FEF71AF94FF0FF33A362E362FEF74EFC72
:102C6000FEF7DCFB02F0D4FB0120FFF78BFF022014
:102C7000FFF788FF04482B462A462946FEF7C4F989
:102C80008017002000ED00E0CD2B000008B50648BD
:102C9000064A0749121A02F0D9FBBDE80840054A66
:102CA0000549064802F0D2BB000000207200002057
:102CB000C85B000000000000C85B000000000020AE
:102CC00010B50A4C23681BB101232360002010BDFE
:102CD00000F052F80028F7D00138062803D8044B3A
:102CE00053F8200010BD034810BD00BFEC0D0020BC
:102CF000FC580000FE8FFFFFBFF34F8F0549064BC6
:102D0000CA6802F4E0621343CB60BFF34F8F00BF89
:102D1000FDE700BF00ED00E00400FA0510B40A4B27
:102D20000A490B4C4FF0FE32C3F800244968C3F83F
:102D30000424C3F80824C3F80C240023C4F8003585
:102D40005DF8044B084700BF00B002500C000020A3
:102D500000A00250D0E90012014BC3E900127047F5
:102D60000C00002038B131B101440022034601308B
:102D700088421A70FAD1704738B500F02FF820B1A8
:102D8000032400F063F8204638BD00F031F898B90C
:102D900000F0ACF898B90F4DD5F828391B0EF02B80
:102DA00008D1D5F8242A0C4B9A420AD0072400F007
:102DB00017F8E6E70624FAE70424204638BD002485
:102DC000F5E7012000F092F804460028F7D1C5F895
:102DD0000C0AD8E700B002500000E0200020704745
:102DE00000207047014BC3F8040A704700B002503E
:102DF00010B5114800F048F800B110BD0F4800F0C0
:102E000043F80028F9D10E4C204600F03DF8002888
:102E1000F3D10C4B0C481C6000F036F8014600283A
:102E2000EBD100F02DF8044608B1204610BD00F0AB
:102E30003FF82046FAE700BF2400002020000020D1
:102E40001C000020140000201800002008B50848CD
:102E500000F024F8074800F021F8074800F01EF8B9
:102E6000064800F01BF8BDE8084000F00BB800BFB2
:102E700024000020200000201C000020180000205A
:102E800000207047704700BF08B5034B02681B68FD
:102E900010689847002008BD3C00002008B5034B8F
:102EA00002685B6810689847002008BD3C0000205D
:102EB00070B5094C094D2069AB68984718B1084BAB
:102EC00008485B689847084AEB6820690021116050
:102ED000BDE87040184700BF280000203C000020DB
:102EE0000C00002018590000F00D0020F8B51A4D14
:102EF0001A4E0446B26828699047E8B9184F3B68F3
:102F00004CB1A3B1012B19D0013B3B602869F36898
:102F100098470020F8BD43B9124A0121C2F80015B4
:102F20001149D1F81029002AFBD101333B60F36825
:102F3000286998470020F8BD0C48F8BD0A4AD2F825
:102F40001039002BFBD1074A6FF07E40C2F80035E4
:102F5000FFF748FF3B68D7E7280000203C0000202F
:102F6000F00D002000A0025000B00250E98FFFFFDA
:102F700010B5044650B1636813F0685F05D0064A87
:102F8000934202D000232360626010BD034B0448CB
:102F90005B689847EFE700BF2C5F5CA90C0000203E
:102FA00038590000C8B143680D4A934213D013F05A
:102FB000685F0ED0012350E8002F194640E8001C3E
:102FC0009CF0000FF7D1012AF5D0BFF35F8F0020EE
:102FD000704704487047044870476FF4E0407047FA
:102FE0002C5F5CA9E98FFFFFEA8FFFFF80B1436888
:102FF000094A93420AD013F0685F05D0BFF35F8F90
:10300000002303601846704704487047044870471F
:103010006FF4E040704700BF2C5F5CA9E98FFFFFB1
:10302000EA8FFFFF10B5044620B1044B6360002215
:10303000226010BD0248FFF771FEF6E73A00003A41
:103040006059000030B10268034B04489A4208BF3F
:103050000020704702487047DD55AABB8208F00087
:103060007108F00038B50D460446B0B1A022002129
:10307000043002F008FA95B10822294604F16400F0
:1030800002F007FA082205F1200104F1840002F0A1
:1030900000FA044B2360002038BD0348FCE70348D6
:1030A000FAE700BFDD55AABB7108F0008308F00005
:1030B0002DE9F74305460E4699461146FFF7C2FF34
:1030C0000446002840F08480002E00F0858000290E
:1030D00000F08480B9F1200F40F0828005F14404B3
:1030E000082205F10408204602F0D3F905F124076F
:1030F00008223146404602F0CCF906F120010822B0
:10310000384602F0C6F902A94FF4807041F8049DD8
:1031100002F0B3F9002865D1334A4FF4807313608D
:10312000012193600823314A00F02EFB012108465B
:1031300005232F4A00F028FB0823424601211C20CA
:1031400000F022FB08233A460121032000F01CFB7B
:10315000224608230121022000F016FB0823254AFD
:1031600001211A2000F010FB0523234A01211B2016
:1031700000F00AFB0823214A0121142000F004FB7F
:1031800008231F4A0121152000F0FEFA082305F14B
:1031900064020121162000F0F7FA082305F18402E9
:1031A0000121172000F0F0FA0823164A01210B2014
:1031B00000F0EAFA00F044FB0446019800F0D2FA6D
:1031C000114B002C18BF1C46A421284602F05DF9C3
:1031D000204603B0BDE8F0830C4CF9E70C4CF7E750
:1031E0000C4CF5E7084CEFE790B00250C4590000D2
:1031F0003C5A000084590000285A0000E859000099
:10320000085A0000A45900008408F0007608F00075
:103210008008F0008108F0000C4BC2691A608269D6
:1032200043F8042C426943F8082C026943F80C2C3B
:10323000C26843F8102C826843F8142C426843F8A3
:10324000182C026843F81C2C704700BF5CB6025073
:103250000C4B1B68C3610C4B1B6883610B4B1B68D9
:1032600043610B4B1B6803610A4B1B68C3600A4B2D
:103270001B688360094B1B684360094B1B68036034
:10328000704700BF5CB6025058B6025054B60250A8
:1032900050B602504CB6025048B6025044B60250E6
:1032A00040B6025030B10268034B04489A4208BF4E
:1032B0000020704702487047DD55AABB0202F000AB
:1032C0000002F00038B5044668B1051D702128469B
:1032D00002F0DBF828462022044902F0D2F8044B21
:1032E0002360002038BD0348FCE700BF505A0000AF
:1032F000DD55AABB0002F0002DE9F043284B04463F
:103300000E4615460FCB85B06F4687E80F002DB9E6
:103310004FF00009484605B0BDE8F0832046FFF7AE
:10332000C1FF81460028F5D1231D0193636AA3BB29
:10333000236F8BB1C3F14008A84528BFA84604F10C
:10334000300031461844424602F09BF8236F434454
:1033500046442367A5EB0805226F402A06D104F1F5
:103360003001384600F0AEFB0023236705F03F082C
:1033700035F03F0505D031462A46384600F0A2FB1D
:103380002E44B8F1000FC3D04246314604F130005C
:1033900002F077F8C4F87080BCE7DFF80890B9E76E
:1033A000F05600000C02F0002DE9FF41144B0446DA
:1033B0000E460FCB6F4687E80F002046FFF772FFDF
:1033C0008046B0B9CEB1636A251D01953BB9012392
:1033D0006362226F04F13001384600F073FB2B4624
:1033E000043E243453F8042B12BAA34246F8042FA7
:1033F000F8D1404604B0BDE8F081DFF80880F8E776
:10340000F05600000502F000084B1B681B0EF02B65
:1034100008D1074B1A68074B9A4205D1064B00208A
:1034200018607047052070470620704728B9025081
:1034300024BA02500000E0200CBA0250002230B53D
:1034400049001346023840F6FC7502F1A05404F519
:103450002C44A400904202F10102CABF23602560FF
:103460005B181E2AF1D1044A13600B445360034BCE
:10347000034A1A6030BD00BF78B0025084B00250D9
:1034800020F80F0030B51E4B85B01A461968009120
:103490000099CC07FAD500F1A05000F52C4080002F
:1034A000016813680193019BD807FAD5154B164C98
:1034B0001868164D1F30202390FBF3F001380028C8
:1034C00010DA00230130400153B1A0F120014FF088
:1034D0000042134204D1013888424FEA5202F8D127
:1034E00005B030BD13680393039BDB07FAD543187F
:1034F00023602B680293029B002BE3D10138DEE7A7
:10350000B4B00250ACB00250E4B00250DCB0025093
:10351000F0B51D6885B001F01F040DB91F2C25D131
:10352000154D2E462F680197019FFF07FAD500F130
:10353000A05000F52C408000006835680395039D7D
:10354000ED07FAD50D4D00EB611028600C480068BE
:1035500002901F2C18BFC94302980FBF106001F0E2
:103560001F0100FA01F11160002119601068430089
:10357000C00F136005B0F0BDB4B00250E4B002500B
:10358000DCB002500C4B18603F3020F03F00890146
:10359000403058609960D9601961596199611C3354
:1035A0000648196082B002680192019AD207FAD5E2
:1035B000196002B0704700BF90B00250B4B0025022
:1035C00038B5A0F12003B3F5426F05462CD88F28FB
:1035D00026D800F1470300F16604DB064FEA5414D5
:1035E00000D0013464013F34A409013411B1A14277
:1035F0001AD30C46E3004FF48050B0FBF3F02028C0
:1036000028BF202002B11060084B01221A60214619
:10361000FFF714FF28462146FFF7B4FF002038BD0E
:1036200000F11F046409DDE70148F8E71CB8025007
:103630002221F000F0B5454B89B01D461C6801946D
:10364000019CE407FAD5424BDFF80CE1DFF80CC12E
:1036500013449B0000241A680B181E2B88BFC0F16E
:103660001E011F320B1852095343B3F5806F82BFFE
:103670004FF48061B1FBF2F1091A00F1A05000F59E
:103680002C402746A14233DC2B680493049BDB07C4
:10369000FAD5304B1B68296805910599CF07FAD5F3
:1036A0002D4C2E49236000231E46934203F1010056
:1036B00040D120F001022948194600268A423CD810
:1036C000296806910699CE07FAD525490968286820
:1036D00007900798C007FAD52160204800210C46C2
:1036E0008B422DD11D4900209A422CD809B0F0BD43
:1036F0002B680293029BDB07FAD503199B001B681A
:103700002E680396039EF607FAD5CEF80030002304
:10371000934203F1010306D1164623F00103B3429D
:1037200004D80134AEE7CCF80070F1E7CCF80070B3
:103730000136F4E70E600346B7E706600131BDE7E6
:1037400004600131CCE708600133CDE7B4B002502A
:1037500024AC00147CB00250D4B00250D8B0025057
:1037600078B0025008B540B1202801464FF007025A
:1037700028BF20210020FFF75DFF024B00221A60C6
:1037800008BD00BF1CB80250F0B5294D85B02C46CD
:103790002E680096009EF607FAD500F1A05000F5BD
:1037A0002C4080000568206801900198C707FAD571
:1037B0002048214F056002EB8306B24229D15A1CF2
:1037C0001D4E22F0010200279A4227D82368029357
:1037D000029BDE07FAD5194B0B449B001B681F3375
:1037E0005B099A4213D2216803910399C907FAD55C
:1037F000154400219B1A104A056008468B4210D8D8
:103800005A1C0D4922F0010200209A420CD805B042
:10381000F0BD52F804CBC7F800C0CEE737600133E3
:10382000D2E710600131E9E708600133EDE700BF3E
:10383000B4B00250D4B00250D8B0025024AC00143E
:103840002DE9F041814B1D6898682033A0B01E46D9
:103850001A680192019AD707FAD57D4B7D4A1A6002
:1038600032680292029AD407FAD57B4A1A607B4AE0
:103870001446116803910399C907FAD5784A11686B
:10388000C1F3402137680497049FFF07FAD5754FAD
:103890001F6027680597059FFF07FAD5176800295D
:1038A00000F0CF80B90540F1CC80316806910699CF
:1038B000CF07FAD56C491960216807910799C907A4
:1038C000FAD51168C1F3402137680897089FFF07B0
:1038D000FAD5664F1F6027680997099FFF07FAD539
:1038E0001268002900F0AF80910540F1AC80326889
:1038F0000A920A9AD207FAD5564A1A6032680B928F
:103900000B9AD707FAD55A4A1A6031680C910C996C
:10391000CC07FAD55749196031680D910D99C9073F
:10392000FAD55549196031680E910E99CF07FAD52D
:103930005249196031680F910F99CC07FAD5504957
:103940001960504B1E46196810911099C907FAD595
:103950003F4C4D4B236033681193119BDB07FAD525
:103960004A4B236033681293129BDF07FAD5484B0A
:1039700023603A4B9846196813911399C907FAD5F1
:10398000324F386033681493149BDB07FAD52260FA
:1039900033681593159BD807FAD53E4B23603368DF
:1039A0001693169BD907FAD53B4B236033681793C0
:1039B000179BDA07FAD5394B236033681893189BA5
:1039C000DB07FAD5364B236033681993199BD80768
:1039D000FAD5344B236033681A931A9BD907FAD56A
:1039E000314B236033681B931B9BDA07FAD52F4BAF
:1039F000236000F01DFC08BBD8F800301C931C9B12
:103A0000DB07F9D53D6033681D931D9BD907FAD5B7
:103A1000274B236033681E931E9BDA07FAD5254B8C
:103A20002360D8F800301F931F9BDB07F9D50C4BA0
:103A30001B6813F4805F204B08BF184620B0BDE818
:103A4000F0811E48FAE71E48F8E700BF90B0025028
:103A500080B0025000100251C01F7229B4B0025051
:103A600088B00250C0CF0129C01F0E29C03F0029D5
:103A700040010249003184A800001649400108A114
:103A800080440888B0B00250C044708880077A41F2
:103A9000C0077E4100006A498006164940006E4911
:103AA00000020021008220214082202180822421E6
:103AB00040A161A100C861510308F1000108F100B3
:103AC0000208F1002DE9F74F314B446880469246D9
:103AD00099461A68002AFCD12E4B9B461A68002A88
:103AE000FCD14FF0FF30019100F094FC802000F0F9
:103AF00097FC294D294A2A4F2A4E012307202B6083
:103B0000A2F59E72C2F83C011360636A3B60A36A2F
:103B10003360D8F8003042F8043CD8F8083020462A
:103B200098470199D9F80030002BFBD1BAF1000F6A
:103B300020D11D4B04221A60D9F80030002BFBD194
:103B4000DBF800A0BAF1000FFAD1D8F80C3020460B
:103B500098473B6863623368A362144BC3F800A0C4
:103B6000C3F844A1D9F80030002BFBD12B6003B07F
:103B7000BDE8F08F236A012B04BF0C4A13600C4B85
:103B800040201960C3F804A000F050FCD4E700BF47
:103B900010B9025020BC025018B8025000B90250AF
:103BA000CCB70250D0B70250C8B7025084B602500A
:103BB00028BC025010B5544B98B019461A680192AF
:103BC000019AD207FAD5514B514A1A600A680292FB
:103BD000029AD407FAD54F4A1A600A680392039AE8
:103BE000D007FAD54C4818600A680492049AD207A4
:103BF000FAD54A4A1A600A680592059AD407FAD596
:103C0000474A1A600A680692069AD207FAD5454AC8
:103C10001A600A680792079AD407FAD5424A1A60CE
:103C20000A680892089AD207FAD5404A1A600A68C8
:103C30000992099AD407FAD53D4A1A600A680A928D
:103C40000A9AD207FAD53B4A1A600A680B920B9A75
:103C5000D407FAD5384A1A600A680C920C9AD2072F
:103C6000FAD5364A1A600A680D920D9AD407FAD529
:103C7000334A1A600A680E920E9AD207FAD5314A70
:103C80001A600A680F920F9AD407FAD52E4A1A6062
:103C90000A681092109AD207FAD52C4A1A601A4B69
:103CA00019461C681194119CE407FAD5174B18604B
:103CB000086812901298C407FAD51A600A6813921D
:103CC000139AD007FAD5124A1A600A681492149A05
:103CD000D207FAD51E4A1A600A681592159AD407B7
:103CE000FAD51C4A1A600A681692169AD007FAD5B5
:103CF000194A1A600A681792179AD207FAD5174A12
:103D00001A6018B010BD00BFB0B0025080B00250B1
:103D100000936521000431904096659000836121F5
:103D200000C3302100C364900081619000461021DF
:103D3000008111210041442100C320290C4610C8F4
:103D40000086312100C3602140C1282940966521A9
:103D50000013319040962529594614C84004324931
:103D600010B5494B94B019461A680092009AD207D0
:103D7000FAD5464B464A1A600A680192019AD4075E
:103D8000FAD5444A1A600A680292029AD007FAD514
:103D9000414818600A680392039AD207FAD53F4A4D
:103DA0001A600A680492049AD407FAD53C4A1A6049
:103DB0000A680592059AD207FAD53A4A1A600A6843
:103DC0000692069AD407FAD5374A1A600A6807920B
:103DD000079AD207FAD5354A1A600A680892089AF3
:103DE000D407FAD5324A1A600A680992099AD207AA
:103DF000FAD5304A1A600A680A920A9AD407FAD5A4
:103E00002D4A1A600A680B920B9AD207FAD52B4AF0
:103E10001A600A680C920C9AD407FAD5284A1A60DC
:103E20000A680D920D9AD207FAD5264A1A600A68D6
:103E30000E920E9AD407FAD5234A1A600A680F9296
:103E40000F9AD207FAD5214A1A600F4B19461C68FF
:103E50001094109CE407FAD50C4B18600868119078
:103E60001198C407FAD51A600A681292129AD007FC
:103E7000FAD5174A1A600A681392139AD207FAD52C
:103E8000144A1A6014B010BDB0B0025080B0025095
:103E900080906521000409904096659080806121A2
:103EA00080200821802064900081619000461021CC
:103EB000008111210041442180202029024610C8A0
:103EC0000086092180206021402128294096652113
:103ED00040962529594614C810B5504B96B01C463B
:103EE0001A680192019AD207FAD54D4B4D4A1A60D1
:103EF00022680292029AD207FAD54B4A1A604B4ABC
:103F000042EA804022680392039AD207FAD51860E9
:103F100022680492049AD007FAD5454A1A60A2F59D
:103F2000800242EA814122680592059AD207FAD5B9
:103F3000196022680692069AD007FAD53D4A1A609F
:103F400022680792079AD107FAD53B4A1A6022687D
:103F50000892089AD207FAD5384A1A60226809925C
:103F6000099AD007FAD5364A1A6022680A920A9A44
:103F7000D107FAD5334A1A6022680B920B9AD207FE
:103F8000FAD5314A1A6022680C920C9AD007FAD5F9
:103F90002E4A1A6022680D920D9AD107FAD52C4A42
:103FA0001A6022680E920E9AD207FAD5294A1A6030
:103FB00022680F920F9AD007FAD5274A1A60216813
:103FC00010911099C907FAD51A60144B1A4619684E
:103FD00011911199C807FAD5114B20491960116840
:103FE00012911299C907FAD51D49196011681391E8
:103FF0001399CC07FAD50B491960116814911499DB
:10400000C807FAD517491960116815911599C9079C
:10401000FAD5154A1A6016B010BD00BFB0B00250F4
:1040200080B002504004419000862929D81001C870
:1040300040144190401421294014652100344090DF
:1040400000310C90C0400C90C030202940960D905B
:1040500000416090031645C800861121004160218F
:10406000594644C84014459040142D9070B52648D8
:1040700088B0054604680094009CE607FAD52348FA
:10408000234C0460234C44EA83432C680194019C34
:10409000E407FAD50360930143EA824242F01044F8
:1040A00044F4C0442B680293029BDE07FAD50460F7
:1040B0002B680393039BDB07FAD5174B03608B0137
:1040C00043EA814141F0104343F4C0432E68049613
:1040D000049EF607FAD503602B680593059BDE075F
:1040E000FAD5046041F058412B680693069BDC0723
:1040F000FAD5016042F058422B680793079BDB0713
:10410000FAD5026008B070BDB0B0025080B0025065
:10411000C02102298071009880611890354B8EB0C3
:1041200019461A680092009AD207FAD5324B334AE0
:104130001A600A680192019AD007FAD5304A1A60CB
:104140000A680292029AD207FAD52E4A1A600A68C1
:104150000392039AD007FAD52B4A1A600A68049290
:10416000049AD207FAD5294A1A600A680592059A74
:10417000D007FAD5264A1A600A680692069AD2072C
:10418000FAD5244A1A600A680792079AD007FAD526
:10419000214A1A600A680892089AD207FAD51F4A7B
:1041A0001A600A680992099AD007FAD51C4A1A605F
:1041B0000A680A920A9AD207FAD51A4A1A60086857
:1041C0000B900B98C007FAD51A600A680C920C9AEB
:1041D000D007FAD5144A1A600A680D920D9AD207D0
:1041E000FAD5124A1A600E210D230F2200200EB0BC
:1041F000FFF73CBFB0B0025080B0025080430129AD
:1042000040633921807001298020542100D13490ED
:10421000C0403490C0302029C0530D9000413890E8
:10422000832308C880E3102100413821CF4308C808
:104230002DE9F041012392B0CDE90333624B1D46D5
:104240001A680592059AD207FAD5604C604B236034
:10425000604B19461A680692069AD707FAD55E4B44
:104260001A68D60400F1A8802A680792079AD00736
:10427000FAD55A4A22600A680892089AD207FAD5F3
:104280001E68C6F30036002E40F098801220FFF71B
:10429000F9F807461320FFF7F5F887428CBF122084
:1042A0001320FFF7EFF8471EFFF738FF03AB01AA13
:1042B00039461220FFF72CF904AB804602AA394692
:1042C0001320FFF725F900EB4800022832D003281D
:1042D0003ED0012874D12B680993099BDB07FAD5DE
:1042E0003F4B23602B680A930A9BD807FAD53D4BB6
:1042F00023602B680F930F9BD907FAD53A4B2360A5
:104300002B681093109BDA07FAD5384B23602B6883
:104310001193119BDB07FAD5354B2360013F25D55F
:104320001023192218210020FFF7A0FE304612B0FA
:10433000BDE8F0812B680B930B9BD907FAD52D4B69
:1043400023602B680C930C9BDA07FAD52A4BCFE736
:104350002B680D930D9BDB07FAD5284B23602B6848
:104360000E930E9BD807FAD5254BC1E703AB01AAE4
:1043700039461220FFF7CCF804AB044602AA3946AE
:104380001320FFF7C5F810EB440402D1FFF712FC2D
:10439000C4E7FFF7E5FC022C08D0032C09D0012C60
:1043A00010D117211620FFF797FDB7E7152114202C
:1043B000F9E70F210E20F6E7124EB7E7124EB5E7E8
:1043C000124EB3E7124EB1E7B0B0025080B00250C7
:1043D00000084A51B4B0025088B0025000084E5153
:1043E00000065A4940065E49000442410014424911
:1043F00040042E49000652494006564900063A49F3
:1044000040063E490608F1000708F1000408F100E3
:104410000508F100014B1860704700BF08BA025050
:10442000014B1860704700BF04BA0250034A13687A
:104430001842FCD0024A10601846704700BA025079
:1044400008BA025008B9086070476FF0150070474D
:104450000020704730B583688B4285B0044615460E
:104460000ED96368C068194401AA00F01DFE28B97E
:104470006268019B9B1A2B60029B6B6005B030BD8C
:104480006FF02100FAE770472DE9F7430E46174613
:104490009946044628B94FF0FF38404603B0BDE8BE
:1044A000F0830029F7D0002AF5D0CB680D891D4490
:1044B00004230DEB03022946384600F0E5FB804655
:1044C0000028E8D1BDF80410738946F6081291421D
:1044D00025D1BDF806109942DDD104230DEB03026E
:1044E0002944384600F0D0FB0028D4D1BDF8042080
:1044F00046F607139A42CED1C4E900679DF82830EA
:10450000A4F80890A3727389BDF806202B44E360D9
:10451000738913442B44043563612561BDE7002B87
:10452000E4D0B8E72DE9F3410E4617461D46044690
:1045300020B94FF0FF3002B0BDE8F0810368002BD6
:10454000F7D04368002BF4D04FF6FF78D4E904236A
:104550009A4216D223685B8923B1E368934204BF71
:10456000043323610423216960680DEB030200F02A
:104570008BFB0028DDD1A37A2BB1D4E903329A4218
:1045800001D30120D7E72389BDF80610434501F187
:10459000040203D0BDF804C09C450BD115B1BDF891
:1045A00004302B802369043333603980236913443A
:1045B0002361C0E7236913442361C7E773B50C4641
:1045C00006461146022301AA204600F0ADFA054630
:1045D000E8B9019A1F2A0ED92368A2F120011944D3
:1045E0002022304600F0FDFB2368019A134423602B
:1045F000284602B070BD0146C2F12002304600F0EC
:10460000FBFB019A2168C2F120003044EAE76FF019
:104610000205EDE700F0BEBB4FF4C07358433030E5
:10462000704710B5044600F06FFBA3684FF4C072EA
:10463000303B02FB103010BD70B50D46044600F053
:10464000C7FD2A46A0F1080104232046BDE87040BA
:1046500000F01ABB13B50446019100F0B9FD042324
:10466000A0F108010DEB0302204600F0F4FD02B0BA
:1046700010BD13B50446FFF7D4FF6A460146204635
:10468000FFF7E8FE10B9009802B010BD0020FBE76C
:1046900070B513460E461546002102460446FCF747
:1046A00093F950B92B4604F12C0201212046FCF766
:1046B0008BF910B1002E08BF002070BD73B5044601
:1046C00000200D461646FBF765FD6946C0B2FCF7B3
:1046D0007DFB30BB2C2303FB05440098E368258950
:1046E0001D4404230DEB0302294600F0CDFAC0B9A6
:1046F000BDF804206489009846F608139A4215D143
:10470000BDF806309C420CD104230DEB0302611965
:1047100000F0BAFA28B9BDF8042046F607139A4209
:1047200007D0009800F0AFFA02B070BD002CF2D0B4
:10473000F7E7BDF80610214429443160F1E737B5A9
:104740000446426A802501A902200195FCF766FB18
:1047500058B9019B226DA36201A905200195FCF7C0
:104760005DFB054628B1092500E00125284603B078
:1047700030BD019B206A636500F0C6FAE065F5E78D
:104780000123036003F1012343600023C0E90233E6
:1047900070474379012B07D10368012B04D10079BD
:1047A000431E584258417047002070477FB5064667
:1047B0000D46022001A9FCF709FB38BB0198FFF761
:1047C00030FFF16D0446284600F00BF904440198CF
:1047D00000F09AFA0646019800F09DFA0822014678
:1047E0000DEB020000F008FB2B798DF80830214614
:1047F0000198334602AA00F05CFA041E019818BF23
:10480000012400F040FA204604B070BD0124FAE70C
:1048100000F064BA2DE9F8430E4600210746084629
:10482000FBF7B8FC012104460020FBF7B3FC33780A
:10483000A34220D0834220D101252C2303FB057500
:10484000F86DAC6AFFF7E8FE013C804600276B6A12
:1048500003EBC40253F83410D2F804901B684A46A4
:10486000C91A30464F44FFF7D3FFB84504F1FF346F
:10487000EDD8BDE8F8830025DFE70120F9E737B57B
:1048800015460C460520694600F028FDE979012906
:1048900003D00022204600F035FD9DF80330012BA7
:1048A00002D1204600F00DFDA9682046FFF7D2FE98
:1048B0002046FDF7A1FB002003B030BD73B50D46C7
:1048C000064600F0C9F80446E86050B302282DD12E
:1048D00001A9FCF77BFA58BB01982A46314600F043
:1048E00033F80446D0B9019800F072FC0123014668
:1048F0000DF10302019800F0C7F90446A0B9019830
:1049000001220DF1030100F077FC10B101238DF8B5
:1049100003309DF8033003F00F03EB71019800F0B2
:10492000B2F9204602B070BD0124F7E70724F8E78A
:104930000124F6E7436A00205A68034613448B4279
:1049400000F10100FAD370472DE9F34707460C4602
:10495000014600201646FBF7B9FD051E3DDB384633
:10496000E46DFFF75EFE5FFA84F96B1E09FB030836
:104970004FF0FF3465B9631C06D07F2C22DC013474
:1049800040F201133460B380284602B0BDE8F087DE
:1049900001230DF107024146384600F075F9002861
:1049A00005F1FF3A1BDB01220DF10701384600F04B
:1049B00023FC18B9B4F1FF3F08BF2C46A8EB090847
:1049C0005546D7E70223803C7371631004F001045D
:1049D0000133013433603471D6E70725D4E701256C
:1049E000D2E710B543790279012B14BFCB01002324
:1049F00002F1FF3201FB0233026814BF4C000C4687
:104A0000013A04FB023010BD30B5826A446D944215
:104A100002D0631C93421BD1802A19D80023194667
:104A2000A34209D1934215D2426A02EBC3035868EC
:104A3000431A5842584130BD416A056D01EBC3012C
:104A400005EBC30549686D688D4201D10133E7E785
:104A50000020F0E70120EEE71FB50220694600F0D4
:104A60003DFC02A9052000F039FC9DF800309DF8BE
:104A70000800012B0AD19DF80230032B06D1013822
:104A800018BF0120400005B05DF804FB0020FAE7E4
:104A900070B50368CD1A002D02DC6FF05F0070BDA9
:104AA00093F900601C78002E0ADB5C1C04601B7804
:104AB00013600368C91A13688B42EED80020EEE732
:104AC00004F07F04013C032C2BD8DFE804F0020A39
:104AD0001421012DE1D05B78136003680233036079
:104AE000E7E7022DD9DDB3F801305BBA9BB2136062
:104AF00003680333F3E7032DCFDD9C785D78DB7823
:104B0000240244EA05442343136003680433E6E7C0
:104B1000042DC2DDD3F801301BBA136003680533DE
:104B2000DDE76FF06300BAE770B404680E1B002E77
:104B300007DD26789E4208D10134046070BCFFF77F
:104B4000A7BF6FF05F0070BC70476FF06100FAE7BD
:104B500038B503230446FFF7E7FF18B9136813B904
:104B60006FF0670038BD013B136023681A78002A94
:104B7000F6D101332360F5E72DE9F34190461F4656
:104B800001AA302305460E46FFF7CEFF0446F0B9D2
:104B90002B68F61A002E34DD42461B7842F8043B9F
:104BA000019B2E681E44314606232846FFF7BCFFB2
:104BB000044660B92B68D8F80420C8F80830991862
:104BC000B142296007D10C213846FEF7CBF82046C8
:104BD00002B0BDE8F0819B5C3A46314642F8043BA6
:104BE0002B6801332B602846FFF752FF60B92B6812
:104BF0007A68BB601344B3422B6018BF6FF0650442
:104C0000E5E76FF05F04E2E70446E0E7F8B5B1F1ED
:104C1000005F00AF0546144610D2D31D23F00703F2
:104C20006E46ADEB030D684600F0DBF869462246A0
:104C30002846FEF761FBB546BD46F8BDFEF75CFBB6
:104C4000FAE738B50C46054658B151B10B6843B187
:104C50004B6833B11C22002100F0CEF82C610020FB
:104C600038BD6FF01500FBE708B54FF02002EFF3F9
:104C7000118382F31288BFF36F8FFCF779FBFCF787
:104C800009F9FCE770477047002930B4044618461C
:104C90000BDBA5680844A84207D8E0686468214493
:104CA00084682468A44630BC60476FF0150030BCAF
:104CB0007047002930B4044618460BDBA568084449
:104CC000A84207D8E0686468214484686468A44600
:104CD00030BC60476FF0150030BC704700290346B8
:104CE00010B410460BDB9C680844A04207D8D86873
:104CF0005B68194483685DF8044B9B6818476FF044
:104D000015005DF8044B704708B5C0688368DB6820
:104D10009847006808BD08B5C0688368DB68984795
:104D2000007908BD70B54C680368A34201D2012028
:104D300070BD8A682244934201D30020F8E7D1E98C
:104D400003254E69B54203D36FF00B038B61F4E783
:104D50001B1B42F835304368086902EBC002536000
:104D60000B6901330B61E2E708B50020FFF77CFF18
:104D7000704700F059BB0146006800F055BB0021A8
:104D80000120FFF7F6BF08B5FCF7E6F8BDE80840DC
:104D9000FCF768B910B55AB10139841810F8012B25
:104DA00011F8013FA04201D09A42F7D0D01A10BDAD
:104DB0001046FCE7431A934210B500EB020308D3F8
:104DC000013902469A420BD011F8014F02F8014B0B
:104DD000F8E70A4412F8014D03F8014D8A42F9D16F
:104DE00010BD10B5431E0A44914200D110BD11F808
:104DF000014B03F8014FF7E7C9B20244034693425F
:104E000000D1704703F8011BF9E70369C9B20C220E
:104E100001FB0233186C00F0070070474FF02003CD
:104E2000EFF3118283F31288BFF36F8F036803F0EF
:104E3000C00343F00203036082F31188BFF36F8F56
:104E4000704770B5C9B203694FF02004EFF31185C4
:104E500084F31288BFF36F8F0C2606FB0134246C99
:104E600014F0C00408D0A24206D085F31188BFF325
:104E70006F8F4FF0FF3070BD06FB013301221A64C3
:104E800085F31188BFF36F8F436803EBC1035B6841
:104E900098470020EFE78022FFF7D3BFF8B5069FC1
:104EA0000469C9B24FF02005EFF3118685F312882B
:104EB000BFF36F8F0C2505FB0144256C05F0070C33
:104EC000BCF1010F0CD1276486F31188BFF36F8FFB
:104ED000C4E90E23436853F8313098470020F8BDE9
:104EE00005F0C005AF4286F31188BFF36F8F0CBF8A
:104EF0006FF077004FF0FF30F1E713B58024009496
:104F0000FFF7CCFF02B010BD6FF08500704710B402
:104F10000069CBB21C2403FB040000215DF8044BA4
:104F20001047002000F017BA002000F050BA08B96E
:104F300001230B70704737B50D46416811B3D1E9B5
:104F40000013846804B3D4E90024F4B1EBB19C42AB
:104F50001ED10133092B1BD800788DF8013040F2A7
:104F600001138DF80000ADF80230684600238DF87B
:104F700004308DF80550FDF7DBFC03B0BDE8304090
:104F8000FCF7EEBB0B46DCE7224601332344E1E7A6
:104F90006FF0150003B030BD7FB5FF238DF80330EF
:104FA0000DF10303002101930123CDE90231052313
:104FB0008DF80C3003A801AB04910593FFF7BBFFFC
:104FC0000028A8BF9DF8030007B05DF804FB1FB5DB
:104FD000002188420CBF0623042301A8CDE901115A
:104FE00003918DF80430FFF7A6FF002818BF6FF07B
:104FF000040005B05DF804FB38B505460C4600F02A
:10500000E8F9002D07DBA84205D9401B84428CBF7C
:105010000020012038BD0020FCE770B50D46284671
:10502000194616461C46FFF7E7FF38B124B1224661
:1050300029463046FFF7D5FE002070BD6FF0150001
:10504000FBE72DE9F3411C4690460023826823606C
:10505000A36013690D4601AA69469847019B5A1E31
:10506000019223B96FF0150002B0BDE8F0810098FD
:10507000A26847682168676085B9A8EB02030668E3
:10508000B34228BF33461A4403FB07112160A260D4
:1050900002689A4206D808300090DFE76B1AB3FB2B
:1050A000F7F3ECE70020DFE713460022FFF7C9BF64
:1050B0002DE9F047836886B01B698846914601A9AF
:1050C00002AA98470024A2462546029BAB4202D87A
:1050D00006B0BDE8F087019F07EBC50700267B6897
:1050E00004933A68B2420AEB060302D801359A46A5
:1050F000EBE703940593494603A8C0470028E7D08F
:10510000049B01361C44ECE730B543681360057A14
:10511000446804EBC504A34202D36FF0010030BD24
:105120005C798C4201D00833F0E70020F7E773B5D3
:10513000054601A80C461646FCF740FF70BB4FF031
:1051400080531969B5FBF1F201FB125242BB196998
:10515000B4FBF1F201FB124212BB1A695B695343C3
:10516000A3421DD3E4B1019B1B0103F1804101F572
:10517000F031C1F80058C1F80448C1F80868D1F806
:10518000002895420FD1D1F8042894420BD1D1F8D0
:105190000838DBB2B34218BF6FF00D0002B070BD2B
:1051A0006FF01500FAE76FF00D00F7E70222FFF746
:1051B000BEBF08B50020FCF7DBF8FDF781BD08B5E0
:1051C000FBF75CFEFFF7D4FDBDE80840FDF778BDB6
:1051D0008068183820F0070010387047042809D07C
:1051E000052803D1481E18BF01207047431A5842B2
:1051F000584170470120704738B515460C4661B1DB
:105200005AB1FFF788FD2544214611F8013B83423E
:1052100003D1A942F9D1012038BD0020FCE738B5FF
:105220000C460123114622460546FFF72DFD0028B6
:105230000FDB012221462846FFF7DEFF38B923782D
:10524000012B14BF022301232370002038BD032348
:10525000FAE70120FAE72DE9F7431D4606460F4617
:105260009046FFF751FD6C1E044440420440082C58
:105270001AD83046FFF74FFD2A4681464146684618
:10528000FFF7AFFD621B49460DEB0500FFF7B4FDCC
:1052900023466A4639463046FFF70BFD003818BFF3
:1052A000012003B0BDE8F0834FF0FF30F9E707B508
:1052B00001238DF8042001AAFFF7CDFF03B05DF8AC
:1052C00004FB81681839012221F00701FFF7EFBFC5
:1052D0008268183A22F00702FFF7A1BF13B50C4607
:1052E000C0B201A9FBF772FD50B921460198FCF745
:1052F000A3FE04460198FFF7C6FC204602B010BD8D
:105300000124FAE713B541EA021104468DF80710AB
:10531000FFF75EFF012301460DF107022046FFF76C
:105320009AFF02B010BD8168183921F007010122EF
:105330000839FFF7BCBF004700F066B808B5002089
:10534000FBF7E4FD08B9FBF7BFFD4FF080430022F7
:10535000C3F8182508BD08B510B101282CD008BD28
:105360004FF08042D2F81814D2F81834C80317D579
:1053700003F00303012B04D013B10020FDF70AF85A
:1053800000234FF08042C2F818350023C2F80431E0
:10539000D2F804310223C2F8043301239360DEE71C
:1053A000D2F81434D907EBD5D2F81C349B07E4D4D7
:1053B0000223C2F80433D2E74FF080430022C3F83F
:1053C0000021D3F80021C3F804031860C7E7FCF7F5
:1053D000E1BF4FF080531A695869504370474FF04E
:1053E0008053186970474FF0805358697047002107
:1053F000FDF756B90223FDF7ADB80323FDF7AAB8B0
:1054000000210220FDF758BB08B1FCF7C5B8704772
:10541000704740B1C368587810F001001EBF18787B
:10542000B0FA80F04009704710B54FF02003EFF359
:10543000118483F31288BFF36F8FFFF7BAFE84F3F2
:105440001188BFF36F8F10BDFFF7D6BCFFF7C9BC43
:10545000704770472DE9F041069F044615461E46E9
:10546000FDF700FE38B93B46324629462046BDE8E6
:10547000F041FDF71DBEBDE8F0810A460021FEF7B0
:105480009FB8FFF7AEBCFFF7B7BC0A460021FFF795
:10549000B3BC01EB820204388A4201D1002070477C
:0C54A00052F8043D1BBA40F8043FF5E749
:1054AC005D1500000000000055160000DC540000E3
:1054BC00BB51000000000000BF51000000000000C4
:1054CC007D1A0000F05400008D1C000004550000F3
:1054DC00305B000010580000205800006C000020C9
:1054EC00DC0C00204D5B000044580000A458000068
:1054FC006E000020060F0020635B0000000000001F
:0C550C00C05800007000002000000000EB
:105518007924000037530000000000007F4D000090
:10552800000000007F4D0000000000007F4D0000DB
:10553800000000007F4D0000000000007F4D0000CB
:10554800000000007F4D0000000000007F4D0000BB
:10555800000000007F4D0000000000007F4D0000AB
:10556800000000007F4D0000000000007F4D00009B
:10557800000000007F4D0000000000007F4D00008B
:10558800000000007F4D0000000000007F4D00007B
:10559800000000007F4D0000000000007F4D00006B
:1055A800000000007F4D0000000000007F4D00005B
:1055B800000000007F4D0000000000007F4D00004B
:1055C800000000007F4D0000000000007F4D00003B
:1055D800000000007F4D0000000000007F4D00002B
:1055E800000000007F4D0000000000007F4D00001B
:1055F800000000007F4D0000000000007F4D00000B
:10560800000000007F4D0000000000007F4D0000FA
:10561800000000007F4D0000000000007F4D0000EA
:10562800000000007F4D0000000000007F4D0000DA
:10563800000000007F4D0000000000007F4D0000CA
:10564800000000007F4D0000000000007F4D0000BA
:10565800000000007F4D00001D2B000037530000A4
:10566800000000007F4D0000000000007F4D00009A
:10567800000000007F4D0000000000007F4D00008A
:10568800000000007F4D0000000000007F4D00007A
:10569800B15B000000000000BC5B000000000000DF
:1056A800025B0000000000003F5B000000000000FB
:1056B800875B0000000000007D5B00000000000028
:1056C800135B000000000000C55B00000000000044
:1056D8005A5B0000000000002C5B00000000000086
:0856E800FFFFFFFFFFFFFFFFC2
:1056F00002000000000000001932000051320000DA
:105700000338FDD8704700000200000005000000CB
:1057100001000000A75A00002C5700000200000002
:105720000500000002000000050000005B00000012
:1057300009000000000000000000000000700000F0
:10574000045500000100000000700000000200008D
:1057500004550000020000000070000000800700F7
:10576000045500000300000000720000007E0700E6
:10577000045500000400000000720000007E0700D5
:10578000045500000500000000F00700008007003D
:10579000045500000600000000700F00002000000B
:1057A000045500000700000000900F00006000009A
:1057B000045500000800000000F00F000010000079
:1057C0000455000000000000694D000000000020AA
:1057D0000000000000000B068017002040000000C1
:1057E00000000B1502000000EC5700000000000054
:1057F000175B000026000202000000201F5B000073
:1058000022000B11DD150000AD15000000000000A6
:10581000FD16000021160000234F0000294F000054
:10582000094F0000974E0000FB4E000000000000F2
:105830000B4E00000000000000000000040000000B
:10584000FF00000000000000000000000000000059
:105850000000000000000000000000000000000048
:1058600004030000000000030001010000008000AC
:10587000C2281700785800000090024084580000A9
:10588000010000008C5800000600000013061D00F7
:1058900014061F0015062000160621001706220018
:1058A00011061E0031180000751900009D1B000034
:1058B0008D1700007D170000000800000010000098
:1058C0001B500000991D0000291D0000851C0000D0
:1058D000751C000004000000FF0000000200000032
:1058E00005000000AC540000AC540000C45400009B
:1058F000C4540000DC540000DC540000FF8FFFFFA4
:10590000FF8FFFFFFE8FFFFFFE8FFFFFFD8FFFFF6B
:10591000FC8FFFFFFC8FFFFF436F756C64206E6F81
:1059200074206C6F636B20706F7765722073617683
:1059300065206D75746578006D757465785F667245
:1059400065652063616C6C65642077697468204EBE
:10595000554C4C20706172616D6574657200000079
:1059600043616E277420696E697469616C697A6538
:10597000206D757465782C20776173204E554C4CE2
:105980000D0A0000FFFFFFFFFFFFFFFFFFFFFFFF0C
:105990000000000000000000000000000100000006
:1059A000FFFFFFFFFCFFFFFFFFFFFFFFFFFFFFFF0A
:1059B00000000000000000000000000001000000E6
:1059C000FFFFFFFF512563FCC2CAB9F3849E17A7EE
:1059D000ADFAE6BCFFFFFFFFFFFFFFFF0000000086
:1059E000FFFFFFFF0000000096C298D84539A1F4E0
:1059F000A033EB2D817D0377F240A463E5E6BCF88C
:105A000047422CE1F2D1176BF551BF376840B6CB56
:105A1000CE5E316B5733CE2B169E0F7C4AEBE78E52
:105A20009B7F1AFEE242E34FFFFFFFFF7F00000073
:105A3000800000000000000000000000FFFFFFFFEA
:105A40007F00000080000000000000000000000057
:105A500067E6096A85AE67BB72F36E3C3AF54FA5FF
:105A60007F520E518C68059BABD9831F19CDE05B2B
:105A70000000F0FFF0FFF0FFEAFF74FFF0FFF0FF1F
:105A8000F0FFF0FFEAFF77C295F360D2EF7F355267
:105A9000500F2CB679802A8648CE3D030107002A94
:105AA0008648CE3D0201003059301306072A864849
:105AB000CE3D020106082A8648CE3D030107034277
:105AC00000042ACB403CE8FEED5BA44995A1A91D4A
:105AD000AEE8DBBE1937CD14FB2F245737E59539D7
