:0200000270008C
:10F000003DB8F3960000000000020000A4F30500E4
:10F0100000000000020500000000000000000000E9
:10F02000FFFFFFFFFFFFFFFFFFFFFFFFFFFFFFFFF0
:10F03000FFFFFFFFFFFFFFFFFFFFFFFFFFFFFFFFE0
:10F04000FFFFFFFFFFFFFFFFFFFFFFFFFFFFFFFFD0
:10F05000FFFFFFFFFFFFFFFFFFFFFFFFFFFFFFFFC0
:10F06000FFFFFFFFFFFFFFFFFFFFFFFFFFFFFFFFB0
:10F07000FFFFFFFFFFFFFFFFFFFFFFFFFFFFFFFFA0
:10F08000FFFFFFFFFFFFFFFFFFFFFFFFFFFFFFFF90
:10F09000FFFFFFFFFFFFFFFFFFFFFFFFFFFFFFFF80
:10F0A000FFFFFFFFFFFFFFFFFFFFFFFFFFFFFFFF70
:10F0B000FFFFFFFFFFFFFFFFFFFFFFFFFFFFFFFF60
:10F0C000FFFFFFFFFFFFFFFFFFFFFFFFFFFFFFFF50
:10F0D000FFFFFFFFFFFFFFFFFFFFFFFFFFFFFFFF40
:10F0E000FFFFFFFFFFFFFFFFFFFFFFFFFFFFFFFF30
:10F0F000FFFFFFFFFFFFFFFFFFFFFFFFFFFFFFFF20
:10F10000FFFFFFFFFFFFFFFFFFFFFFFFFFFFFFFF0F
:10F11000FFFFFFFFFFFFFFFFFFFFFFFFFFFFFFFFFF
:10F12000FFFFFFFFFFFFFFFFFFFFFFFFFFFFFFFFEF
:10F13000FFFFFFFFFFFFFFFFFFFFFFFFFFFFFFFFDF
:10F14000FFFFFFFFFFFFFFFFFFFFFFFFFFFFFFFFCF
:10F15000FFFFFFFFFFFFFFFFFFFFFFFFFFFFFFFFBF
:10F16000FFFFFFFFFFFFFFFFFFFFFFFFFFFFFFFFAF
:10F17000FFFFFFFFFFFFFFFFFFFFFFFFFFFFFFFF9F
:10F18000FFFFFFFFFFFFFFFFFFFFFFFFFFFFFFFF8F
:10F19000FFFFFFFFFFFFFFFFFFFFFFFFFFFFFFFF7F
:10F1A000FFFFFFFFFFFFFFFFFFFFFFFFFFFFFFFF6F
:10F1B000FFFFFFFFFFFFFFFFFFFFFFFFFFFFFFFF5F
:10F1C000FFFFFFFFFFFFFFFFFFFFFFFFFFFFFFFF4F
:10F1D000FFFFFFFFFFFFFFFFFFFFFFFFFFFFFFFF3F
:10F1E000FFFFFFFFFFFFFFFFFFFFFFFFFFFFFFFF2F
:10F1F000FFFFFFFFFFFFFFFFFFFFFFFFFFFFFFFF1F
:10F2000080130120E52B0200A9EF0400B12B0200BE
:10F21000B12B0200B12B0200B12B02000000000054
:10F22000000000000000000000000000F9220200C1
:10F23000B12B02000000000069220200B12B020085
:10F24000C5240200731D0500C5240200C524020068
:10F25000C5240200C5240200C5240200C524020002
:10F26000431D0500C5240200C52402005D1D0500E4
:10F27000C5240200C5240200C5240200C5240200E2
:10F28000C5240200C5240200C5240200C5240200D2
:10F29000C5240200C5240200C5240200C5240200C2
:10F2A000C5240200C5240200C5240200C5240200B2
:10F2B000C5240200C5240200C5240200C5240200A2
:10F2C000C5240200C5240200C5240200C524020092
:10F2D000C5240200C5240200C5240200C524020082
:10F2E000C5240200C5240200C5240200C524020072
:10F2F000C5240200C5240200C5240200C524020062
:10F3000001F0FF01102A2BDB10F0070F08D010F8D6
:10F31000013B013A8B422DD010F0070F42B3F6D1DA
:10F32000F0B441EA012141EA014122F007047FF0F3
:10F3300000070023F0E80256083C85EA010586EA4A
:10F34000010685FA47F5A3FA87F586FA47F6A5FA86
:10F3500087F68EB9EED1F0BC01F0FF0102F0070292
:10F3600032B110F8013B013A83EA010313B1F8D13D
:10F370000020704701387047002D06BF354603381E
:10F38000073815F0010F07D1013015F4807F02BF57
:10F39000013015F4C03F0130F0BC0138704700BFA8
:10F3A00053B94AB9002908BF00281CBF4FF0FF31EC
:10F3B0004FF0FF3000F00CB8ADF1080C6DE904CE51
:10F3C0000EF0A0FCDDF804E0DDE9022304B0704794
:10F3D000704700BF2DE9F14F03F11C0402EB840CD0
:10F3E0004FEA930B8A68CB680868496800F046F9D1
:10F3F0003CE9F0006040694072407B400BF1060E32
:10F400004EE083EA134480EA134582EA134746BA82
:10F4100096EA3444604000F00F1684EA063420F087
:10F420000F1684EA161054BA94EA0106724002F0EC
:10F430000F1486EA043622F00F1486EA14124CBA2E
:10F440006540694001F00F1485EA043521F00F147E
:10F4500085EA14115CBA67407B4003F00F1487EA19
:10F46000043723F00F1487EA141344BA44404DBA0A
:10F470004D4056BA56405FBA5F4087EA174886EA61
:10F48000174B84EA17464FEA38488BEA1B4485EA53
:10F490001B4788EA1B4580EA3440694072407B4044
:10F4A00000F0703400F0803500F00F3040EA440086
:10F4B00040EAD50080EA900404F0332480EA840016
:10F4C000604001F0703401F0803501F00F3141EA05
:10F4D000440141EAD50181EA910404F0332481EA30
:10F4E0008401614002F0703402F0803502F00F3286
:10F4F00042EA440242EAD50282EA920404F033244A
:10F5000082EA8402624003F0703403F0803503F035
:10F510000F3343EA440343EAD50383EA930404F038
:10F52000332483EA84036340C943DB4381EA000454
:10F5300083EA044686EA020183EA014382EA33450C
:10F5400083EA14435C4084EA00077FEA040A8AEAFB
:10F55000024A8AEA010B87EA11488AEA374A80EAB6
:10F56000060181EA1A418AEA030A04EA0A004540D0
:10F5700088EA040707EA0B0041408AEA0B0608EA1A
:10F58000060084EA34428AEA3A4602EA0603584010
:10F590004540414087EA37438BEA3B4003EA000994
:10F5A00085EA090582EA0309464006EA0906714030
:10F5B00085EA010005EA3546464006EA314181EA1E
:10F5C000304181EA364606EA304686EA354634401E
:10F5D0000F4086EA010508EA050886EA364002403F
:10F5E00088EA020881EA314213405C4080EA020363
:10F5F00009EA030987EA0907674088EA040806EA76
:10F600000A0601EA0B018AEA0B0425408AEA3A4419
:10F61000204045408BEA3B4B02EA0B02564084EA0D
:10F620000B04234059406E40694087EA364080EA27
:10F63000384080EA060380EA104481EA134585EAEF
:10F64000344585EA17427D4082EA354180EA05402B
:10F650003CE9F0006040694072407B40BEF1010E21
:10F660003FF6CFAE20BC00F05FF828606960AA606A
:10F67000EB60BDE8F08F00BF00F000BA80EA101424
:10F6800004F0F01480EA0410604081EA111404F0E0
:10F69000F01481EA0411614082EA121404F0F014BB
:10F6A00082EA0412624083EA131404F0F01483EA3D
:10F6B0000413634080EA102404F47F4480EA0420A9
:10F6C000604081EA112404F47F4481EA042161400E
:10F6D00082EA122404F47F4482EA0422624083EA2C
:10F6E000132404F47F4483EA0423634081EA500432
:10F6F00004F0553480EA4400614083EA520404F087
:10F70000553482EA4402634082EA900404F03334C0
:10F7100080EA8400624083EA910404F0333481EA91
:10F7200084016340704700BF82EA900404F03334E0
:10F7300080EA8400624083EA910404F0333481EA71
:10F740008401634081EA500404F0553480EA4400A7
:10F75000614083EA520404F0553482EA4402634073
:10F7600080EA102404F47F4480EA0420604081EAA7
:10F77000112404F47F4481EA0421614082EA1224C6
:10F7800004F47F4482EA0422624083EA132404F4EE
:10F790007F4483EA0423634080EA101404F0F014E9
:10F7A00080EA0410604081EA111404F0F01481EA48
:10F7B0000411614082EA121404F0F01482EA041287
:10F7C000624083EA131404F0F01483EA04136340E4
:10F7D000704700BF2DE9F14F94464FEA930B8A68BA
:10F7E000CB6808684968FFF749FF0BF1060E33E064
:10F7F00083EA134480EA134582EA134746BA96EA3D
:10F800003444604000F00F1684EA063420F00F16EE
:10F8100084EA161054BA94EA0106724002F00F14FA
:10F8200086EA043622F00F1486EA14124CBA6540B8
:10F83000694001F00F1485EA043521F00F1485EAC0
:10F8400014115CBA67407B4003F00F1487EA043759
:10F8500023F00F1487EA1413BCE8F00060406940FD
:10F8600072407B4000F0E03400F0103500F00F30C3
:10F8700040EA540040EAC50080EA900404F03324D2
:10F8800080EA8400604001F0E03401F0103501F0BE
:10F890000F3141EA540141EAC50181EA910404F0C3
:10F8A000332481EA8401614002F0E03402F0103533
:10F8B00002F00F3242EA540242EAC50282EA92049E
:10F8C00004F0332482EA8402624003F0E03403F05F
:10F8D000103503F00F3343EA540343EAC50383EAC8
:10F8E000930404F0332483EA8403634081EA3247BB
:10F8F00087EA134581EA354690EA060484EA034B19
:10F9000082EA1B4280EA044484EA054483EA144AFA
:10F9100085EA14448BEA044B84EA374481EA0B41BC
:10F9200081EA164104EA0A00454082EA04082BEA0B
:10F93000080041408AEA0B0602EA060084EA3443E2
:10F940008AEA3A4603EA060778404540414088EA99
:10F9500038478BEA3B4007EA000985EA090583EA54
:10F960000709464006EA0906714085EA010005EAF2
:10F970003546464006EA314181EA304181EA364661
:10F9800006EA304686EA3546344008EA010886EA47
:10F9900001052A4086EA364003405A4081EA314355
:10F9A0001F407C4080EA030709EA070988EA090842
:10F9B000544088EA020806EA0A0601EA0B018AEACC
:10F9C0000B0215408AEA3A42104045408BEA3B4020
:10F9D00003405E404240174079404D404E40E44372
:10F9E000F64386EA18435D4085EA054083EA1343FF
:10F9F00086EA034183EA384284EA114383EA0443F6
:10FA00005FEA3343BEF1010E3FF6F2AE1ED4BCE80E
:10FA1000F0006040694072407B4020BCFFF784FEEC
:10FA200028606960AA60EB60BDE8F08F2DE9E041D5
:10FA30004FF2F00280EA1031114080EA0130484074
:10FA400041088208C3084FF0000E4FE700F0113064
:10FA500001F0113102F0113203F0113340EA41009C
:10FA600040EA820040EAC3004FF2F00280EA10311F
:10FA7000114080EA01304840BDE8E0812DE9F04FB7
:10FA800002F11C050646074600EB850851F8040BF9
:10FA9000043A46F8040BF9D14FF0010CFFF7C6FF0A
:10FAA0005FEA302080EA0C001ECF41404A405340BC
:10FAB0005C401EC62000464517D04FEA4C0C1CF493
:10FAC000807F18BFACF1E50C2C2DE7D03C2D06D182
:10FAD000FFF7ACFF06CF41404A4006C6100006CFF4
:10FAE00041404A4006C61000D8E736E90F00FFF74C
:10FAF000C5FD043D86E80F00F7D1BDE8F08F00BFDB
:10FB000070B491E87800B2E802105B1854EB0C0472
:10FB1000B2E802104D4156EB0C0680E878008041B7
:10FB2000013070BC704700BF70B491E87800B2E853
:10FB300002105B1A74EB0C04B2E802108D4176EBF4
:10FB40000C0680E878008041404270BC704700BFDE
:10FB50002DE9F00791E80017C0CAA8FB063440F869
:10FB6000043BA9FB0615E8FB6741EAFB665140F838
:10FB7000044BA9FB0743ECFB661344CAE8FB625441
:10FB8000EAFB6714ECFB673440F8045BA9FB0275E1
:10FB9000EAFB6235ECFB6245E8FB6617E9FB66377A
:10FBA000EAFB6647ECFB6657BAC0BDE8F007704752
:10FBB0002DE9F00791E8F807B2E802105B1854EB62
:10FBC0000C04B2E802104D4156EB0C06B2E80210EC
:10FBD0004F4158EB0C08B2E8021059EB01095AEBFF
:10FBE0000C0A80E8F80780410130BDE8F007704753
:10FBF0002DE9F00791E8F807B2E802105B1A74EB00
:10FC00000C04B2E802108D4176EB0C06B2E802104B
:10FC10008F4178EB0C08B2E8021079EB01097AEB1E
:10FC20000C0A80E8F80780414042BDE8F0077047C1
:10FC30002DE9F007524290E87800B1E880071740BC
:10FC4000DB1918EA020854EB080419EA020955EB1B
:10FC500009051AEA020A56EB0A0678C090E878000D
:10FC6000B1E8800717407B4118EA020854EB08040A
:10FC700019EA020955EB09051AEA020A56EB0A06C7
:10FC800078C080410130BDE8F00770472DE9F007EA
:10FC9000524290E87800B1E880071740DB1B18EA71
:10FCA000020874EB080419EA020975EB09051AEA5F
:10FCB000020A76EB0A0678C090E87800B1E880077F
:10FCC0001740BB4118EA020874EB080419EA02095C
:10FCD00075EB09051AEA020A76EB0A0678C080413C
:10FCE0004042BDE8F00770472DE9F00152424FF065
:10FCF000040890E8300091E8C000A31B1340E41A08
:10FD0000F618EB1B1340ED1AFF1830C0C0C1B8F154
:10FD10000108EED1BDE8F001704700BF00B592ECDC
:10FD2000080AB1E8805707EE101A53EC102A56EC77
:10FD3000114AA7FB0251A8FB020BE7FB6310E9FB8A
:10FD400062B041EC145AA8FB0351EAFB6201E7FBE5
:10FD500064B5E7FB6605E8FB661505EE10BAA9FB7E
:10FD600003B6EAFB6316ECFB6356E8FB640BE9FBA6
:10FD7000641BEAFB645BECFB646B05EE900AACFB76
:10FD8000023012EE104AEEFB6250E9FB6460EAFBBF
:10FD900064B0E7FB6431E8FB645112EE904AE8FB83
:10FDA0006461E9FB64B1EAFB640106EE103AA7FB6B
:10FDB000043213EE104AE7FB6462E8FB64B2E9FB2D
:10FDC0006402EAFB641211EE904AE9FB6453EAFB19
:10FDD000646313EE904AE7FB64B3E8FB6403E9FB5A
:10FDE0006413EAFB642306EE905A17EE109A99E822
:10FDF000000610EE108AA9FB0854EAFB68B412EE64
:10FE0000108AECFB6804EEFB6814E9FB6824EAFB4B
:10FE1000683410EE908AEEFB6865E9FB68B5EAFB92
:10FE2000680512EE908AECFB6815EEFB6825E9FB8D
:10FE30006835EAFB684507EE106A11EE108AAEFBE2
:10FE40000876E9FB6806EAFB681613EE108AECFBFD
:10FE50006826EEFB6836E9FB6846EAFB685611EE59
:10FE6000908AECFB68B7EEFB6807E9FB6817EAFBD2
:10FE7000682713EE908AECFB6837EEFB6847E9FBD6
:10FE80006857EAFB686700BD2DE9F04F07EE900A5E
:10FE9000FFF744FF17EE908A07EE90BAA8EC084AE5
:10FEA00088E8FF00BDE8F08F00B591E89857A3FB04
:10FEB0000352A3FB0401E3FB6420E3FB671042EC65
:10FEC000145AA3FB0752E3FB6802E4FB6415E3FB4F
:10FED0006805E3FB6925A4FB07B6E3FB6926E3FBA2
:10FEE0006A56E4FB670BE4FB682BE3FB6A5BE3FB0E
:10FEF0006C6B40EC151AA4FB0810E4FB6950E3FBA3
:10FF00006C60E3FB6EB0E7FB6721E4FB6951E4FB47
:10FF10006A61E3FB6EB1E4FB6E0106EE102AA7FBFB
:10FF20000832E4FB6A62E4FB6CB2E4FB6E02E7FBBE
:10FF30006E12E7FB6853E7FB6963E4FB6CB3E7FB16
:10FF40006C03E7FB6E13E8FB6E2306EE905AA7FBEB
:10FF50000954E7FB6AB4E7FB6C04E8FB6C14E8FBAC
:10FF60006E24E9FB6E34E8FB6865E7FB6AB5E8FBE5
:10FF70006A05E8FB6C15E9FB6C25E9FB6E35EAFBCD
:10FF80006E4507EE106AA8FB0976E8FB6A06E9FBF6
:10FF90006A16E9FB6C26EAFB6C36EAFB6E46ECFB64
:10FFA0006E56E8FB69B7E9FB6907E9FB6A17EAFBEC
:10FFB0006A27EAFB6C37ECFB6C47ECFB6E57EEFBF9
:10FFC0006E6700BD2DE9F04F07EE900AFFF76CFF5A
:10FFD00017EE908A07EE90BAA8EC084A88E8FF006E
:10FFE000BDE8F08F2DE9F14FFEC8F0EC030A90E870
:10FFF000005F4FF00A0003EE100A10EE900ADB19C2
:0200000280007C
:100000009CEA030C18EB3C4897EA080713EB3753BC
:1000100093EA3C4C18EB3C6898EA375724189EEA60
:10002000040E19EB3E4990EA090014EB305494EAAF
:100030003E4E19EB3E6999EA305049EC128A59EC70
:10004000118A49199AEA010A18EB3A4895EA080513
:1000500011EB355191EA3A4A18EB3A6898EA35556E
:1000600092199BEA020B19EB3B4996EA090612EB3F
:10007000365292EA3B4B19EB3B6999EA365613EB41
:10008000706393EA3B6B18EB3B4898EA706013EBA4
:10009000305393EA3B4B5FEA3B6B18EB0B0898EA53
:1000A00030505FEA706014EB756494EA3C6C19EBB5
:1000B0003C4999EA756514EB355494EA3C4C5FEA87
:1000C0003C6C19EB0C0999EA35555FEA756549EC0A
:1000D000118A59EC128A11EB766191EA3E6E18EBA7
:1000E0003E4898EA766611EB365191EA3E4E5FEA59
:1000F0003E6E18EB0E0898EA36565FEA766612EB0B
:10010000776292EA3A6A19EB3A4999EA776712EB11
:10011000375292EA3A4A5FEA3A6A19EB0A0999EACF
:1001200037575FEA776700EE900A13EE100A01383E
:100130007FF461AF01BCFEC0E0EC030AA0E8005F01
:10014000BDE8F08F30B44FF0000310F8014B11F808
:10015000015B013A84EA050443EA0403F5D1A3F103
:1001600001034FEAD37030BC704700BF4FF000036B
:1001700010F8012B013943EA0203F9D1A3F101037D
:100180004FEAD370704700BF30B411F8014B12F83A
:10019000015B6C4000F8014B013BF6D130BC70476D
:1001A00002EAE3714FEA430002EAE07C9CEA410183
:1001B000404102EAE07C9CEA4101404102EAE07CE5
:1001C0009CEA4101404102EAE07C9CEA4101404155
:1001D00002EAE07C9CEA4101404102EAE07C9CEAC0
:1001E0004101404102EAE07C9CEA4101404102EACF
:1001F000E07C9CEA4101404102EAE07C9CEA41014A
:10020000404102EAE07C9CEA4101404102EAE07C94
:100210009CEA4101404102EAE07C9CEA4101404104
:1002200002EAE07C9CEA4101404102EAE07C9CEA6F
:100230004101404102EAE07C9CEA4101404102EA7E
:10024000E07C9CEA4101404102EAE07C9CEA4101F9
:10025000404102EAE07C9CEA4101404102EAE07C44
:100260009CEA4101404102EAE07C9CEA41014041B4
:1002700002EAE07C9CEA4101404102EAE07C9CEA1F
:100280004101404102EAE07C9CEA4101404102EA2E
:10029000E07C9CEA4101404102EAE07C9CEA4101A9
:1002A000404102EAE07C9CEA4101404102EAE07CF4
:1002B0009CEA4101404102EAE07C9CEA4101404164
:1002C00002EAE07C9CEA4101404102EAE07C9CEACF
:1002D0004101404102EAE07C9CEA41014041491869
:1002E000404170472DE9F34FD0F80080D1F80090DD
:1002F000D0F804A0D1F804B098FA88F899FA89F9EE
:100300009AFA8AFA9BFA8BFB42464B46FFF748FF64
:1003100004000D0052465B46FFF742FF45400F00C8
:1003200095EA0106654082EA080283EA0903FFF7BD
:1003300037FF45404E4003BC01B4F0B484688D687B
:10034000C668CF6824BA2DBA36BA3FBA88EA040024
:1003500089EA05018AEA060A8BEA070B03B4220040
:100360002B00FFF71DFF8046894632003B00FFF758
:1003700017FF89EA00090F0089EA010689EA0809DE
:1003800062406B40FFF70CFF89EA00097140384674
:10039000FCBC4C4084EA510485EAC17584EA9104AE
:1003A00085EA817584EAD11485EA4165454085EA8C
:1003B000500586EAC07685EA900586EA807685EA69
:1003C000D01586EA406688EA060889EA070988EABD
:1003D000040689EA0507FFF7E3FE464047404F4021
:1003E00088EA010882EA0A0283EA0B03FFF7D8FED3
:1003F000474088EA010852465B46FFF7D1FE474076
:1004000088EA000888EA010889EA010994EA0804F0
:1004100084EA580485EAC87584EA980485EA8875F0
:1004200084EAD81485EA486595EA090585EA5905FC
:1004300086EAC97685EA990586EA897685EAD91534
:1004400086EA496601BC24BA04602DBA456036BA12
:1004500086603FBAC760BDE8F08F00BF30B4016866
:1004600042688368C46809BA12BA1BBA24BACD17A5
:1004700005F0870595EA44045B415241494109BAB8
:10048000016012BA42601BBA836024BAC46030BCF7
:10049000704700BF2DE9F00791E8F807B2E80210B5
:1004A0005B1854EB0C04B2E802104D4156EB0C06FD
:1004B000B2E802104F4158EB0C08B2E8021059EBB9
:1004C00001095AEB0C0A4FF0260261EB010122EA06
:1004D00001015B1854F1000455F1000556F10006C6
:1004E00057F1000758F1000859F100095AF1000AC4
:1004F00061EB010122EA01010B4480E8F807BDE845
:10050000F00770472DE9F00791E8F807B2E802100C
:100510005B1A74EB0C04B2E802108D4176EB0C060A
:10052000B2E802108F4178EB0C08B2E8021079EBC8
:1005300001097AEB0C0A4FF0260261EB010102EA95
:1005400001015B1A74F1000475F1000576F10006F3
:1005500077F1000778F1000879F100097AF1000AD3
:1005600061EB010102EA0101A3EB010380E8F80756
:10057000BDE8F007704700BF2DE9F04F07EE900A85
:10058000FFF7CCFB4FF0260C59EC148A4FF0000A11
:10059000E0FB0C8AE1FB6C9A51EC150AE2FB6CA0C3
:1005A000E3FB6C0153EC162AE4FB6C12E5FB6C23B5
:1005B0005EEC174AE6FB6C34E7FB6CB40CFB04F40E
:1005C00018EB040459F100055AF1000650F1000738
:1005D00051F1000852F1000953F1000A5BF1000BE0
:1005E00060EB00002CEA000004448EE8F00FBDE848
:1005F000F08F00BF2DE9F04F07EE900AFFF754FC93
:10060000C0E700BF2DE9F00391E8F8134FF4EE3195
:10061000BF390022E3FB6123E4FB6134E5FB614564
:10062000E6FB6156E7FB6167E8FB6178E9FB6189FE
:10063000ECFB619C4FF0260101FB0CFC12EB0C0261
:1006400053F1000354F1000455F1000556F1000682
:1006500057F1000758F1000859F100096CEB0C0C38
:1006600021EA0C010A4480E8FC03BDE8F00370476E
:100670002DE9F00390E8F8134FEAEC7202F0130250
:100680002CF0004C02F11301591854F1000155F1FE
:10069000000156F1000157F1000158F1000159F134
:1006A00000015CF100014FEAE17101F01301114416
:1006B0005B1854F1000455F1000556F1000657F19E
:1006C000000758F1000859F100094CF1000C2CF01A
:1006D000004C80E8F813BDE8F00370472DE9F007FF
:1006E00091E8F807B2E802105B1854EB0C04B2E88A
:1006F00002104D4156EB0C06B2E802104F4158EB88
:100700000C08B2E8021059EB01095AEB0C0A8941B6
:10071000B3F1FF3374F1FF3475F1FF3576F1000664
:1007200077F1000778F1000879F101097AF1FF3AD1
:1007300051F100015B184C414D4156F1000657F153
:10074000000758F1000859EBD1795AEB010A80E80B
:10075000F807BDE8F00770472DE9F00791E8F807C2
:10076000B2E802105B1A74EB0C04B2E802108D417F
:1007700076EB0C06B2E802108F4178EB0C08B2E879
:10078000021079EB01097AEB0C0A89415B184C41A4
:100790004D4156F1000657F1000758F1000859EB9A
:1007A000D1795AEB010A80E8F807BDE8F0077047F5
:1007B00018EB040859EB05095AEB060A5BEB070B2B
:1007C0005FF0000C4CF1000C18EB050859EB060922
:1007D0005AEB070A5BEB070B50EB0C005FF0000CC9
:1007E00051EB0C0152EB0C0263414CF1000CB8EBE5
:1007F000070879F100097AF1000A7BEB040BA841A4
:10080000B141A241B3416CF1000CBBEB050BB0410F
:10081000B941AA41BB416CF1000C4CF001068CF0CF
:10082000020718EB060859EB6C095AEB6C0A7BEBD4
:100830006C0B70EB6C0471EB6C0572EB670653EBA1
:100840006C076CEB6C0C18EB0C0059EB0C015AEBC1
:100850000C025BF1000354F1000455F1000556EB66
:10086000DC7657EB0C0770472DE9F04F07EE900A46
:10087000FFF754FA59EC168A17EE10AAFFF798FF03
:1008800059EC148A5BEC15AAFFF792FF17EE908AD9
:1008900088E8FF00BDE8F08F2DE9F04F07EE900AE1
:1008A000FFF702FB59EC168A17EE10AAFFF780FF3C
:1008B00059EC148A5BEC15AAFFF77AFF17EE908AC1
:1008C00088E8FF00BDE8F08F2DE9F04F90E8F00FC9
:1008D00000F140004FF0040E59E0F0B4826BC36B9E
:1008E00004680525242687593C444FEA724787EA65
:1008F000F24787EA92273C4442684FEAF21787EAB8
:10090000B24787EAD2073C4440F8044B032D08BFA6
:100910006FF01B0687593A444FEA734787EAF3475B
:1009200087EA93273A4443684FEAF31787EAB347C5
:1009300087EAD3073A4440F8042B87593B444FEAEF
:10094000744787EAF44787EA94273B4444684FEAB0
:10095000F41787EAB44787EAD4073B4440F8043BDE
:10096000013DC0D1A0F13C00076A3C444FEA724708
:1009700087EAF24787EA92273C4402684FEAF21777
:1009800087EAB24787EAD2073C44C463F0BC4FF021
:10099000020288EA781C8CEAF84C0BEBBC1C8AEA51
:1009A000090303EA080383EA0A039C4450F8043B62
:1009B0009C4451F8043B9C44674444EA050B0BEA11
:1009C000060B04EA05034BEA030BE34484EAF42331
:1009D00083EA34530BEBB30B87EA771C8CEAF74CB2
:1009E0000AEBBC1C89EA080303EA070383EA09034C
:1009F0009C4450F8043B9C4451F8043B9C4466449E
:100A00004BEA040A0AEA050A0BEA04034AEA030A63
:100A1000E2448BEAFB2383EA3B530AEBB30A86EA00
:100A2000761C8CEAF64C09EBBC1C88EA070303EA47
:100A3000060383EA08039C4450F8043B9C4451F8A5
:100A4000043B9C4465444AEA0B0909EA04090AEAA2
:100A50000B0349EA0309E1448AEAFA2383EA3A5399
:100A600009EBB30985EA751C8CEAF54C08EBBC1C54
:100A700087EA060303EA050383EA07039C4450F868
:100A8000043B9C4451F8043B9C44644449EA0A08F2
:100A900008EA0B0809EA0A0348EA0308E04489EA7D
:100AA000F92383EA395308EBB30884EA741C8CEA0F
:100AB000F44C07EBBC1C86EA050303EA040383EA53
:100AC00006039C4450F8043B9C4451F8043B9C446E
:100AD000E34448EA090707EA0A0708EA090347EA7C
:100AE0000307674488EAF82383EA385307EBB30720
:100AF0008BEA7B1C8CEAFB4C06EBBC1C85EA0403EE
:100B000003EA0B0383EA05039C4450F8043B9C442E
:100B100051F8043B9C44E24447EA080606EA090609
:100B200007EA080346EA0306664487EAF72383EAEE
:100B3000375306EBB3068AEA7A1C8CEAFA4C05EBCB
:100B4000BC1C84EA0B0303EA0A0383EA04039C4403
:100B500050F8043B9C4451F8043B9C44E14446EA71
:100B6000070505EA080506EA070345EA03056544A3
:100B700086EAF62383EA365305EBB30589EA791C46
:100B80008CEAF94C04EBBC1C8BEA0A0303EA090368
:100B900083EA0B039C4450F8043B9C4451F8043B0B
:100BA0009C44E04445EA060404EA070405EA060317
:100BB00044EA0304644485EAF52383EA355304EBED
:100BC000B304013A7FF4E5AEA0F14000BEF1010E9E
:100BD0007FF483AEA0F1400C9CE80F000019491986
:100BE0009219DB19ACE80F009CE80F00404449441F
:100BF00052445B44ACE80F00BDE8F08F2DE9005093
:100C0000ACF1400204EE90CAB2EC020AC0CAB2ECE7
:100C1000021AB2E80003B2EC022AB2E8000CB2EC0D
:100C2000023AB2E8005055EC124A84EAD46080EAF5
:100C3000451085EAD56181EA441180EA141080EA02
:100C4000057081EA151181EA04711CEB903C4EEBB2
:100C5000913E1CEB814C4EEB804E53EC132A82EA02
:100C60000A0083EA0B0120402940504059401CEB08
:100C7000000C5EEB010E51EC140AD0E900451CEBB0
:100C8000040C5EEB050ED1E900451CEB040C5EEB99
:100C9000050E18EB0C0859EB0E09D0E902451219A4
:100CA0006B41D1E9024512196B4155EC124A8AEAAF
:100CB00004008BEA050110EA080011EA090190EA34
:100CC0000A0091EA0B0112184B4188EAD86080EAC9
:100CD000491089EAD96181EA481180EA181080EA4E
:100CE000097081EA191181EA087112EB903243EB25
:100CF000913312EB814243EB804343EC132A53ECD4
:100D0000102A55EC114A82EAD22080EA435083EA45
:100D1000D32181EA425180EA921080EA836081EA1D
:100D2000931181EA82611CEB107C4EEB117E1CEB6F
:100D3000011C4EEB001E82EA0601324001EA04006B
:100D400050401CEB000C01EA0C00504083EA070203
:100D50003B4012EA050159405EEB010E02EA0E012A
:100D6000594053EC132AA4185D4145EC114A12185E
:100D70004B418CEADC2080EA4E508EEADE2181EA8B
:100D80004C5180EA9C1080EA8E6081EA9E1181EAD3
:100D90008C6112EB107243EB117312EB011243EBF7
:100DA000001343EC132A84EAD46080EA451085EAF4
:100DB000D56181EA441180EA141080EA057081EA65
:100DC000151181EA04711AEB903A4BEB913B1AEB47
:100DD000814A4BEB804B53EC122A82EA080083EAEB
:100DE000090120402940504059401AEB000A5BEBB2
:100DF000010B51EC140AD0E904451AEB040A5BEB31
:100E0000050BD1E904451AEB040A5BEB050B16EB65
:100E10000A0657EB0B07D0E9064512196B41D1E9D9
:100E2000064512196B4155EC114A88EA040089EA1B
:100E300005013040394090EA080091EA0901121892
:100E40004B4186EAD66080EA471087EAD76181EA9B
:100E5000461180EA161080EA077081EA171181EACC
:100E6000067112EB903243EB913312EB814243EB6C
:100E7000804343EC122A53EC132A55EC104A82EAC1
:100E8000D22080EA435083EAD32181EA425180EAAA
:100E9000921080EA836081EA931181EA82611AEB01
:100EA000107A4BEB117B1AEB011A4BEB001B82EA19
:100EB0000C0112EA0C0201EA040050401AEB000A8D
:100EC00001EA0A00504083EA0E0213EA0E0312EA16
:100ED000050159405BEB010B02EA0B01594053EC51
:100EE000122AA4185D4145EC104A12184B418AEAB7
:100EF000DA2080EA4B508BEADB2181EA4A5180EA12
:100F00009A1080EA8B6081EA9B1181EA8A6112EB78
:100F1000107243EB117312EB011243EB001343EC1D
:100F2000122A84EAD46080EA451085EAD56181EA14
:100F3000441180EA141080EA057081EA151181EAF3
:100F4000047118EB903849EB913918EB814849EB63
:100F5000804953EC112A82EA060083EA0701204007
:100F600029405040594018EB000859EB010951EC59
:100F7000140AD0E9084518EB040859EB0509D1E932
:100F8000084518EB040859EB05091CEB080C5EEB4F
:100F9000090ED0E90A4512196B41D1E90A45121927
:100FA0006B4155EC104A86EA040087EA050110EA15
:100FB0000C0011EA0E017040794012184B418CEA86
:100FC000DC6080EA4E108EEADE6181EA4C1180EA34
:100FD0001C1080EA0E7081EA1E1181EA0C7112EB7E
:100FE000903243EB913312EB814243EB804343EC6D
:100FF000112A53EC122A55EC134A82EAD22080EAD5
:10100000435083EAD32181EA425180EA921080EA78
:10101000836081EA931181EA826118EB107849EBD1
:10102000117918EB011849EB001982EA0A0112EA5A
:101030000A0201EA0400504018EB000801EA080027
:10104000504083EA0B0213EA0B0312EA05015940F0
:1010500059EB010902EA0901594053EC112AA4187D
:101060005D4145EC134A12184B4188EAD82080EACA
:10107000495089EAD92181EA485180EA981080EAEA
:10108000896081EA991181EA886112EB107243EB61
:10109000117312EB011243EB001343EC112A84EAA3
:1010A000D46080EA451085EAD56181EA441180EA7E
:1010B000141080EA057081EA151181EA047116EBBB
:1010C000903647EB913716EB814647EB804753EC60
:1010D000102A82EA0C0083EA0E0120402940504089
:1010E000594036184F4151EC140AD0E90C453619D5
:1010F0006F41D1E90C4536196F411AEB060A5BEBDB
:10110000070BD0E90E4512196B41D1E90E451219B2
:101110006B4155EC134A8CEA04008EEA050110EA93
:101120000A0011EA0B0190EA0C0091EA0E01121874
:101130004B418AEADA6080EA4B108BEADB6181EA94
:101140004A1180EA1A1080EA0B7081EA1B1181EAC9
:101150000A7112EB903243EB913312EB814243EB75
:10116000804343EC102A53EC112A55EC124A82EAD0
:10117000D22080EA435083EAD32181EA425180EAB7
:10118000921080EA836081EA931181EA826116EB12
:10119000107647EB117716EB011647EB001782EA42
:1011A000080112EA080201EA04005040361801EA78
:1011B0000600504083EA090213EA090312EA050116
:1011C00059404F4102EA0701594053EC102AA41834
:1011D0005D4145EC124A12184B4186EAD62080EA5E
:1011E000475087EAD72181EA465180EA961080EA83
:1011F000876081EA971181EA866112EB107243EBF6
:10120000117312EB011243EB001343EC102A84EA32
:10121000D46080EA451085EAD56181EA441180EA0C
:10122000141080EA057081EA151181EA04711CEB43
:10123000903C4EEB913E1CEB814C4EEB804E53ECC0
:10124000132A82EA0A0083EA0B0120402940504019
:1012500059401CEB000C5EEB010E51EC140AD0E976
:1012600010451CEB040C5EEB050ED1E910451CEBA0
:10127000040C5EEB050E18EB0C0859EB0E09D0E9D7
:10128000124512196B41D1E9124512196B4155EC07
:10129000124A8AEA04008BEA050110EA080011EA02
:1012A000090190EA0A0091EA0B0112184B4188EA01
:1012B000D86080EA491089EAD96181EA481180EA58
:1012C000181080EA097081EA191181EA087112EB9D
:1012D000903243EB913312EB814243EB804343EC7A
:1012E000132A53EC102A55EC114A82EAD22080EAE4
:1012F000435083EAD32181EA425180EA921080EA86
:10130000836081EA931181EA82611CEB107C4EEBD1
:10131000117E1CEB011C4EEB001E82EA06013240DE
:1013200001EA040050401CEB000C01EA0C005040A4
:1013300083EA07023B4012EA050159405EEB010EC9
:1013400002EA0E01594053EC132AA4185D4145EC02
:10135000114A12184B418CEADC2080EA4E508EEA8A
:10136000DE2181EA4C5180EA9C1080EA8E6081EA9D
:101370009E1181EA8C6112EB107243EB117312EB38
:10138000011243EB001343EC132A84EAD46080EA91
:10139000451085EAD56181EA441180EA141080EA9B
:1013A000057081EA151181EA04711AEB903A4BEB52
:1013B000913B1AEB814A4BEB804B53EC122A82EAA9
:1013C000080083EA090120402940504059401AEBA7
:1013D000000A5BEB010B51EC140AD0E914451AEB3F
:1013E000040A5BEB050BD1E914451AEB040A5BEB2D
:1013F000050B16EB0A0657EB0B07D0E91645121939
:101400006B41D1E9164512196B4155EC114A88EA36
:10141000040089EA05013040394090EA080091EA69
:10142000090112184B4186EAD66080EA471087EA24
:10143000D76181EA461180EA161080EA077081EAD6
:10144000171181EA067112EB903243EB913312EBE4
:10145000814243EB804343EC122A53EC132A55ECB0
:10146000104A82EAD22080EA435083EAD32181EAFB
:10147000425180EA921080EA836081EA931181EA06
:1014800082611AEB107A4BEB117B1AEB011A4BEBD2
:10149000001B82EA0C0112EA0C0201EA040050402F
:1014A0001AEB000A01EA0A00504083EA0E0213EA2E
:1014B0000E0312EA050159405BEB010B02EA0B0136
:1014C000594053EC122AA4185D4145EC104A1218F9
:1014D0004B418AEADA2080EA4B508BEADB2181EA31
:1014E0004A5180EA9A1080EA8B6081EA9B1181EA76
:1014F0008A6112EB107243EB117312EB011243EB92
:10150000001343EC122A84EAD46080EA451085EA8D
:10151000D56181EA441180EA141080EA057081EAFD
:10152000151181EA047118EB903849EB913918EBE9
:10153000814849EB804953EC112A82EA060083EA8C
:101540000701204029405040594018EB000859EB52
:10155000010951EC140AD0E9184518EB040859EBBD
:101560000509D1E9184518EB040859EB05091CEBEE
:10157000080C5EEB090ED0E91A4512196B41D1E94E
:101580001A4512196B4155EC104A86EA040087EAA5
:10159000050110EA0C0011EA0E01704079401218A2
:1015A0004B418CEADC6080EA4E108EEADE6181EA13
:1015B0004C1180EA1C1080EA0E7081EA1E1181EA4B
:1015C0000C7112EB903243EB913312EB814243EBFF
:1015D000804343EC112A53EC122A55EC134A82EA59
:1015E000D22080EA435083EAD32181EA425180EA43
:1015F000921080EA836081EA931181EA826118EB9C
:10160000107849EB117918EB011849EB001982EABF
:101610000A0112EA0A0201EA0400504018EB00082D
:1016200001EA0800504083EA0B0213EA0B0312EAB6
:101630000501594059EB010902EA0901594053ECEF
:10164000112AA4185D4145EC134A12184B4188EA4F
:10165000D82080EA495089EAD92181EA485180EAB4
:10166000981080EA896081EA991181EA886112EB19
:10167000107243EB117312EB011243EB001343ECB6
:10168000112A84EAD46080EA451085EAD56181EAAE
:10169000441180EA141080EA057081EA151181EA8C
:1016A000047116EB903647EB913716EB814647EB0A
:1016B000804753EC102A82EA0C0083EA0E01204096
:1016C00029405040594036184F4151EC140AD0E996
:1016D0001C4536196F41D1E91C4536196F411AEB8B
:1016E000060A5BEB070BD0E91E4512196B41D1E9E5
:1016F0001E4512196B4155EC134A8CEA04008EEA20
:10170000050110EA0A0011EA0B0190EA0C0091EAC7
:101710000E0112184B418AEADA6080EA4B108BEA1C
:10172000DB6181EA4A1180EA1A1080EA0B7081EAD3
:101730001B1181EA0A7112EB903243EB913312EBE9
:10174000814243EB804343EC102A53EC112A55ECC1
:10175000124A82EAD22080EA435083EAD32181EA06
:10176000425180EA921080EA836081EA931181EA13
:10177000826116EB107647EB117716EB011647EBFB
:10178000001782EA080112EA080201EA0400504048
:10179000361801EA0600504083EA090213EA0903F9
:1017A00012EA050159404F4102EA0701594053EC42
:1017B000102AA4185D4145EC124A12184B4186EAE2
:1017C000D62080EA475087EAD72181EA465180EA4D
:1017D000961080EA876081EA971181EA866112EBB0
:1017E000107243EB117312EB011243EB001343EC45
:1017F000102A51EC140A803004EE100AA1F14001C5
:10180000A1EC020AC0C1A1EC021AA1E80003A1ECFC
:10181000022AA1E8000CA1EC023AA1E80050BDE8C0
:10182000009000BF00B59CE8F00FDCE91201DCE994
:101830001C23241845EB01054FEA560E8EEAC77E9D
:101840008EEA162E8EEA076E8EEAD61E8EEA476E56
:1018500014EB0E044FEA570E8EEAC67E8EEA172E60
:101860008EEA066E8EEAD71E45EB0E054FEAD24E83
:101870008EEA433E8EEAC20E8EEA537E8EEA921EB6
:101880008EEA836E14EB0E044FEAD34E8EEA423E8C
:101890008EEAC30E8EEA527E8EEA931E45EB0E054B
:1018A000DCE91401DCE91E23361847EB01074FEA97
:1018B000580E8EEAC97E8EEA182E8EEA096E8EEADE
:1018C000D81E8EEA496E16EB0E064FEA590E8EEAC6
:1018D000C87E8EEA192E8EEA086E8EEAD91E47EB74
:1018E0000E074FEAD24E8EEA433E8EEAC20E8EEAD1
:1018F000537E8EEA921E8EEA836E16EB0E064FEA38
:10190000D34E8EEA423E8EEAC30E8EEA527E8EEAB5
:10191000931E47EB0E07DCE9160118EB000849EBB4
:1019200001094FEA5A0E8EEACB7E8EEA1A2E8EEA13
:101930000B6E8EEADA1E8EEA4B6E18EB0E084FEA3B
:101940005B0E8EEACA7E8EEA1B2E8EEA0A6E8EEA45
:10195000DB1E49EB0E094FEAD44E8EEA453E8EEA75
:10196000C40E8EEA557E8EEA941E8EEA856E18EBC2
:101970000E084FEAD54E8EEA443E8EEAC50E8EEA38
:10198000547E8EEA951E49EB0E09DCE91801DCE96C
:1019900008231AEB000A4BEB010B4FEA520E8EEABA
:1019A000C37E8EEA122E8EEA036E8EEAD21E8EEA75
:1019B000436E1AEB0E0A4FEA530E8EEAC27E8EEA8F
:1019C000132E8EEA026E8EEAD31E4BEB0E0B4FEAFD
:1019D000D64E8EEA473E8EEAC60E8EEA577E8EEAD5
:1019E000961E8EEA876E1AEB0E0A4FEAD74E8EEAE3
:1019F000463E8EEAC70E8EEA567E8EEA971E4BEB67
:101A00000E0BACE8F00FDCE91201DCE902671218FA
:101A100043EB01034FEA560E8EEAC77E8EEA162E7E
:101A20008EEA076E8EEAD61E8EEA476E12EB0E0223
:101A30004FEA570E8EEAC67E8EEA172E8EEA066EA3
:101A40008EEAD71E43EB0E034FEAD84E8EEA493E8C
:101A50008EEAC80E8EEA597E8EEA981E8EEA896E4C
:101A600012EB0E024FEAD94E8EEA483E8EEAC90EBC
:101A70008EEA587E8EEA991E43EB0E03DCE91401D0
:101A8000DCE90489361847EB01074FEA580E8EEA65
:101A9000C97E8EEA182E8EEA096E8EEAD81E8EEA6C
:101AA000496E16EB0E064FEA590E8EEAC87E8EEA94
:101AB000192E8EEA086E8EEAD91E47EB0E074FEA02
:101AC000DA4E8EEA4B3E8EEACA0E8EEA5B7E8EEAD4
:101AD0009A1E8EEA8B6E16EB0E064FEADB4E8EEAEE
:101AE0004A3E8EEACB0E8EEA5A7E8EEA9B1E47EB6A
:101AF0000E07DCE91601DCE906AB18EB000849EB40
:101B000001094FEA5A0E8EEACB7E8EEA1A2E8EEA31
:101B10000B6E8EEADA1E8EEA4B6E18EB0E084FEA59
:101B20005B0E8EEACA7E8EEA1B2E8EEA0A6E8EEA63
:101B3000DB1E49EB0E094FEAD24E8EEA433E8EEA97
:101B4000C20E8EEA537E8EEA921E8EEA836E18EBE8
:101B50000E084FEAD34E8EEA423E8EEAC30E8EEA5C
:101B6000527E8EEA931E49EB0E09DCE908011AEB5E
:101B7000040A4BEB050B4FEA500E8EEAC17E8EEA4B
:101B8000102E8EEA016E8EEAD01E8EEA416E1AEB9E
:101B90000E0A4FEA510E8EEAC07E8EEA112E8EEAB0
:101BA000006E8EEAD11E4BEB0E0B4FEAD64E8EEA3C
:101BB000473E8EEAC60E8EEA577E8EEA961E8EEA63
:101BC000876E1AEB0E0A4FEAD74E8EEA463E8EEA31
:101BD000C70E8EEA567E8EEA971E4BEB0E0BACE8D4
:101BE000CC0F5CE90E45DCE90267001941EB050109
:101BF0004FEA560E8EEAC77E8EEA162E8EEA076EE2
:101C00008EEAD61E8EEA476E10EB0E004FEA570E94
:101C10008EEAC67E8EEA172E8EEA066E8EEAD71EF2
:101C200041EB0E014FEAD84E8EEA493E8EEAC80ECD
:101C30008EEA597E8EEA981E8EEA896E10EB0E00AF
:101C40004FEAD94E8EEA483E8EEAC90E8EEA587E99
:101C50008EEA991E41EB0E015CE90C45DCE9048932
:101C6000361947EB05074FEA580E8EEAC97E8EEA11
:101C7000182E8EEA096E8EEAD81E8EEA496E16EB91
:101C80000E064FEA590E8EEAC87E8EEA192E8EEAAB
:101C9000086E8EEAD91E47EB0E074FEADA4E8EEA3F
:101CA0004B3E8EEACA0E8EEA5B7E8EEA9A1E8EEA62
:101CB0008B6E16EB0E064FEADB4E8EEA4A3E8EEA3C
:101CC000CB0E8EEA5A7E8EEA9B1E47EB0E075CE92E
:101CD0000A45DCE906AB18EB040849EB05094FEAB5
:101CE0005A0E8EEACB7E8EEA1A2E8EEA0B6E8EEAA2
:101CF000DA1E8EEA4B6E18EB0E084FEA5B0E8EEA88
:101D0000CA7E8EEA1B2E8EEA0A6E8EEADB1E49EB35
:101D10000E094FEAD04E8EEA413E8EEAC00E8EEAA0
:101D2000517E8EEA901E8EEA816E18EB0E084FEA05
:101D3000D14E8EEA403E8EEAC10E8EEA507E8EEA89
:101D4000911E49EB0E09DCE908451AEB020A4BEB40
:101D5000030B4FEA540E8EEAC57E8EEA142E8EEAED
:101D6000056E8EEAD41E8EEA456E1AEB0E0A4FEA15
:101D7000550E8EEAC47E8EEA152E8EEA046E8EEA29
:101D8000D51E4BEB0E0B4FEAD64E8EEA473E8EEA3F
:101D9000C60E8EEA577E8EEA961E8EEA876E1AEB84
:101DA0000E0A4FEAD74E8EEA463E8EEAC70E8EEAFC
:101DB000567E8EEA971E4BEB0E0BACE8C30F5CE928
:101DC0000E23DCE90267A41845EB03054FEA560E23
:101DD0008EEAC77E8EEA162E8EEA076E8EEAD61E31
:101DE0008EEA476E14EB0E044FEA570E8EEAC67E5B
:101DF0008EEA172E8EEA066E8EEAD71E45EB0E058A
:101E00004FEAD84E8EEA493E8EEAC80E8EEA597ED7
:101E10008EEA981E8EEA896E14EB0E044FEAD94EB4
:101E20008EEA483E8EEAC90E8EEA587E8EEA991EE8
:101E300045EB0E055CE90C23DCE90489B61847EB99
:101E400003074FEA580E8EEAC97E8EEA182E8EEAF4
:101E5000096E8EEAD81E8EEA496E16EB0E064FEA20
:101E6000590E8EEAC87E8EEA192E8EEA086E8EEA28
:101E7000D91E47EB0E074FEADA4E8EEA4B3E8EEA4A
:101E8000CA0E8EEA5B7E8EEA9A1E8EEA8B6E16EB87
:101E90000E064FEADB4E8EEA4A3E8EEACB0E8EEA03
:101EA0005A7E8EEA9B1E47EB0E075CE90A23DCE9AB
:101EB00006AB18EB020849EB03094FEA5A0E8EEA0B
:101EC000CB7E8EEA1A2E8EEA0B6E8EEADA1E8EEA30
:101ED0004B6E18EB0E084FEA5B0E8EEACA7E8EEA56
:101EE0001B2E8EEA0A6E8EEADB1E49EB0E094FEAC4
:101EF000D44E8EEA453E8EEAC40E8EEA557E8EEAB8
:101F0000941E8EEA856E18EB0E084FEAD54E8EEAC7
:101F1000443E8EEAC50E8EEA547E8EEA951E49EB4B
:101F20000E095CE918231AEB000A4BEB010B4FEA90
:101F3000520E8EEAC37E8EEA122E8EEA036E8EEA6F
:101F4000D21E8EEA436E1AEB0E0A4FEA530E8EEA49
:101F5000C27E8EEA132E8EEA026E8EEAD31E4BEB01
:101F60000E0B4FEAD64E8EEA473E8EEAC60E8EEA3A
:101F7000577E8EEA961E8EEA876E1AEB0E0A4FEA9D
:101F8000D74E8EEA463E8EEAC70E8EEA567E8EEA1F
:101F9000971E4BEB0E0B8CE8F00FACF1600C00BD04
:101FA0002DE9F04F04EE101A00F1400CB0E8F807EC
:101FB000ACE8F807B0E8F807ACE8F807FEF71EFE53
:101FC000FFF730FCFEF71AFEFFF72CFCFEF716FEBB
:101FD000FFF728FCFEF712FEFFF724FCFEF70EFECB
:101FE000ACF1800808F1400998E80F0CB9E8F0500E
:101FF0000019694192197B411AEB0C0A4BEB0E0B4D
:10200000A8E80F0C98E80F0CB9E8F05000196941E6
:1020100092197B411AEB0C0A4BEB0E0BA8E80F0C44
:1020200098E80F0099E8F0000019694192197B4186
:1020300088E80F00BDE8F08F0EB51048017A8DF8E2
:102040000110C1798DF800108179ADF80410407944
:10205000ADF80200684606F067F808B1B32108E061
:1020600007480068029002A80FF012F9002803D078
:10207000B721032000F0D4F80EBD0000042A002090
:1020800028A3000010B528B11422044910F0ADF9BE
:10209000002010BD6FF0150010BD000048A3000027
:1020A00070B56FF02C05D0BB204C607808B1A8113A
:1020B00070BD09B36FF01500002AF9D01C4B891EC2
:1020C00006292DD2DFE801F00306162C191C107822
:1020D000587019E091780029EAD0D1780029E7D02A
:1020E00011781B29E4D351781B29E1D31068C3F878
:1020F000050009E01078987006E01088588103E028
:102100001188FF29D4D819730122094900200BF046
:102110005BFFB0F5803F05DB6FF00B0070BDFFE7A4
:102120002846FBE70121A170F8E70000200000200D
:10213000042A002010B5064C607820B106F08CFA15
:1021400020780BF05FFD00F04FFE0020607010BDA6
:102150002000002070B50C46050002D00CB16007CD
:1021600002D06FF0150070BD00F004F9A8B1284648
:102170000BF00EFD0A4D00220A49287020460BF094
:1021800023FF0FF0DBFD0021287806F04FFAFFF760
:1021900053FF01206870002070BD4FF0FF3070BD0C
:1021A00020000020042A002030B589B004000CD0A3
:1021B0000BF096FC4FF0FF3520B10AF035FEB0F57C
:1021C000FA7F05D9284609B030BD6FF01500FAE74F
:1021D0000F4D10486C6000F081F900206870A87005
:1021E00001461E22684610F07AF91E220A49684606
:1021F00010F0FBF81E226946084810F0F6F8EFF3DD
:10220000108472B600F0FEFD04B962B60020DAE771
:102210002000002039A000002AA30000042A00208A
:102220000EB572B6154A5568DDB1002203466E46FA
:102230000A2403E0B0FBF4F0521CD2B20028F9D11A
:10224000B0540AE0D8B2B0FBF4F7B3FBF4F304FBEC
:102250001700521ED2B23030B054002AF2D13046AC
:10226000A847BFF34F8F06480168064A01F4E061B2
:1022700011430160BFF34F8F00BFFDE72000002036
:102280000CED00E00400FA05064810B581784078AE
:10229000014302D04FF0FF3010BD06F0EDF90020F1
:1022A00010BD000020000020064810B5817840785D
:1022B000014302D04FF0FF3010BD06F071F800204E
:1022C00010BD000020000020064810B5817840783D
:1022D000014302D04FF0FF3010BD0FF07BF900201A
:1022E00010BD000020000020064810B5817840781D
:1022F000014302D04FF0FF3010BD06F0CFF90020AF
:1023000010BD000020000020064810B581784078FC
:10231000014302D04FF0FF3010BD0FF071F90020E3
:1023200010BD000020000020010000010100001B82
:102330001B0302001F000800000000000000000056
:102340000000000000000000C593BAA9144D8D05DF
:10235000304E9B92D7711EE8AA02503C014A526847
:102360001047000020290020014A92681047000011
:10237000202900200448416819B1806808B1012073
:1023800070470020704700002029002002490DC836
:1023900081E80D0000207047202900207CB5214EE7
:1023A0000546001D30601F4801F0B4FF04460228B6
:1023B00004D0042C07D0082C2DD030E01949284631
:1023C0000BF0BFFE2BE03078072804D105213E201A
:1023D0000BF08DFE50B1134928460BF017FFB0F5F6
:1023E000817F0FD372210820FFF71AFFB6F8030090
:1023F000ADF8000001A968460CF0CCF80028D2D056
:102400005321F0E70028CED0A97828780BF06FFE92
:102410000028C8D003E0034928460BF0C0FE204640
:102420007CBD00002C290020402803D2401EC1B2F0
:10243000054805E0FF2805D04038C1B20248083001
:102440000CF03DB80120704728000020401EC1B2AA
:1024500001480CF034B8000038000020024902683E
:102460000A614068486170472800002005490268F9
:102470000A60406842F48C220A60034A10434860B4
:102480007047000028000020F80740020249026857
:102490008A604068C86070472800002007484FF0F5
:1024A000FF3100220160C90C416000F108011F20CA
:1024B0000A604A600831C1E9000270472800002024
:1024C00010B5FFF7EBFF0EF0FBFF04460248006873
:1024D00000B18047204610BD40000020014908603F
:1024E00070470000400000202DE9F04104464FF005
:1024F0008050D0F8A0701F4D1E4E103D10220021BC
:1025000020460FF0ECFF1022002104F110000FF024
:10251000E6FF2868401C08D16868401C05D1A868FF
:10252000401C02D1E868401C07D028686A68A96886
:10253000EB6820616261A161E361002000F0B4FDFD
:102540008743F80713D13068401C08D17068401CDD
:1025500005D1B068401C02D1F068401C07D0326839
:102560007068B168F36822606060A160E360002079
:10257000BDE8F0819000001038B54FF0805104465E
:102580002248D1F8A010214D0268143D521C04D1FC
:102590004268D2431204120C35D0C90733D0016807
:1025A0004068ADF80000C4F80110BDF80000A4F8C0
:1025B0000500A07940F0C000A0712868401C0CD034
:1025C0006868401C09D0A868401C06D0E868401C18
:1025D00003D0002000F068FD40B110220021E01D72
:1025E0000FF07DFF01202070002038BD2A68696847
:1025F000A868EB68C4F80720C4F80B10C4F80F00F3
:10260000C4F81330EEE70020EDE70000A40000104E
:1026100002210180418000210171C52141714BF6E9
:102620009321C1800149816000207047A9144D8D1C
:102630002DE9F041114D012055F82030D3B11E791C
:10264000FF2E13D00022411E13D400BF55F82140A5
:1026500024B12779B74201D1A4782244491EF5D587
:10266000FF2A06D9FA211720FFF7DAFD0021197198
:1026700000E01A71401EDFD5BDE8F0815000002057
:1026800030B503464FEA020003EB400464898C42F4
:1026900009D09C78401CB0FBF4F504FB1500C0B2D7
:1026A0009042F1D1FF2030BD1CB5044600221046F7
:1026B00064F31740CDE900200BE000BFBDF8040033
:1026C000214600F001F920B140F2D7211720FFF791
:1026D000A7FD684600F0A8F80028EFD01CBD000058
:1026E00070B50546194850F8214064B3B5F5706FD0
:1026F00004D340F27E211720FFF792FD29462046A1
:102700000CF0F3F90146FF2804D02046BDE87040E4
:102710000CF0FFB9A078B5FBF0F100FB1150C6B288
:1027200032464FF6F0712046FFF7AAFF0246FF2817
:1027300009D0B24201D00020E07029462046BDE811
:1027400070400CF0CCB9002070BD0000500000209B
:10275000084A10B552F82140014620460CF0C5F950
:102760000146FF2804D02046BDE810400CF0D1B946
:10277000002010BD500000202DE9FF410400184E3C
:102780000D4603942AD03078022802D00020FFF7AB
:10279000F3FF03A800F0BCF8124F2B78D7E9001024
:1027A000BA6863F31F60CDE9001002926946002009
:1027B00000F0D2F8D7E903106B787A6963F31F60F1
:1027C000CDE9001002926946012000F0C5F800F042
:1027D0000BF8706804B0001BBDE8F0810020D9E759
:1027E0004400002028AA000010B50E4C20780128D3
:1027F00013D0032802D04FF4A37105E0D4E90101FE
:10280000814204D040F249111720FFF709FDFFF77C
:102810000FFF04202070002010BD0220207060688F
:1028200010BD00004400002010B5044680790E4918
:1028300051F82000A8B14FF6F073E1798278914207
:102840000FD24A1CE27100EB410252899A42F4D045
:1028500000EB41025289A2800CF05BF9206000205D
:1028600010BD022010BD0000500000202DE9F041F5
:1028700007464FF6FF703880124850F82140ECB1FF
:10288000A5782079B0FBF5F105FB110632464FF62D
:10289000F0712046FFF7F4FE0246FF280ED0A81B79
:1028A0001044B0FBF5F105FB11002179084481B219
:1028B00039802046BDE8F0410CF011B90020BDE898
:1028C000F0810000500000202DE9F04106460F483D
:1028D00050F82150314628460CF007F90446FF28ED
:1028E00012D0D5F8060021464FEA304728460CF0B2
:1028F00010F901463046B84705EB44014FF6F07039
:1029000048810020BDE8F0810320FBE75000002053
:1029100010B510490023B8B10A78022A02D04FF44A
:10292000837106E003220A700268540704D040F263
:102930000B111720FFF774FC4C684A6022448A6030
:102940000260CB600B6110BD012008708B604B6092
:1029500010BD0000440000202DE9F041314D2E78DB
:10296000012E04D0032E02D04FF4907137E08A7903
:10297000082A02D94FF4917131E0CB79002B4ED067
:102980005F000A376B68022A3B4401D9144601E014
:102990004FF002042344A3F1010301D9144601E0DE
:1029A0004FF00204A4F1010423EA04038C881444C8
:1029B000A2F10102A4F1010424EA02044FF6FF721D
:1029C000944202D340F22D1109E0032E23D1154E7B
:1029D000DA1B0C3656F8207027B14FF49971172086
:1029E000FFF71EFC46F820201480C8799070012063
:1029F000D070087A107108684FF6F076000CD0801D
:102A000008881081002003E002EB4007401C7E8113
:102A1000CF798742F8D8C87900FB04306860BDE8F8
:102A2000F0810000440000203B880100E80208001B
:102A3000000000001D7E010010010800FF000000E2
:102A40002DE9FF4F244C064681B020689A469346F4
:102A500050B1017AB14203D9406850F8260038B12C
:102A6000032005B0BDE8F08FA5211820FFF7D8FBA3
:102A7000194602980CF06FF8804658460E990CF0F3
:102A800060F8054608EB0500001D87B22068A146E6
:102A9000394600680BF0BEFF04001AD0678025801D
:102AA0002946201D0E9D07465A46092300950BF026
:102AB0002BFF2088414638440A23029ACDF800A013
:102AC0000BF022FFD9F80000406840F826400020B3
:102AD000C7E70120C5E700005800002070B5144C7E
:102AE00023688BB1197A814212D95A6852F82010A2
:102AF00071B1002542F820504A8818680BF0E2FFB7
:102B0000216800200A7A0BE0C6211820FFF788FB15
:102B1000032070BD4B6853F8203033B9401CC0B25D
:102B20008242F7D808680BF0C2FF002070BD000099
:102B3000580000202DE9F0410D46040090464FF06A
:102B4000000606D00027A00705D086211820FFF731
:102B500067FB0127F7E7CDB1114600200BF08BFF93
:102B60000C3000EB85068FB90A4F04F10C00AA0067
:102B70003C602572606000EB850020600021606889
:102B80000FF0ADFC414638680BF075FF3046BDE8EC
:102B9000F08100005800002070B5084D286800281A
:102BA0000AD0002404E02046FFF798FF641CE4B23A
:102BB0002868007AA042F6D870BD000058000020B6
:102BC000094910B502460968002049B10B7A9342C1
:102BD00005D9496851F82210002900D0081D10BD00
:102BE000EC211820FFF71CFB580000200A4910B503
:102BF00002460968002059B10B7A934207D9496807
:102C000051F82210002902D031F8040B084410BDFD
:102C1000FA211820FFF704FB5800002070B51E4B66
:102C2000456804460022A1B10120607058888108DF
:102C30005FF0000004EB400304EB80061A83198464
:102C400000FB015373602318401C1A750428F1D34C
:102C500070BD62705FF0000004EB40010A830A84DB
:102C600004EB80014A602118401C0A750428F3D344
:102C70005888B0F5FF7F01D2460800E0FF260BF030
:102C8000DEFF656020842918A1606684E560A08469
:102C90002161E68470BD00005C0000202DE9F04158
:102CA00058B100251144244ECCB20027347081075E
:102CB00005D04E210920FFF7B3FA0125F2E71F2BBB
:102CC00004D84FF6FF7101EA830109E05900FF2B98
:102CD0000CD903F1FF02B2EB430F00D2114689B2C7
:102CE0004FF6FC72C91C114035B107E07C22B2EBF3
:102CF000430FF4D37C21F2E77060718004EB84020F
:102D000007EBC203002276684FF0010C0DE04DB9CD
:102D100002EB820700EB030E06F837C006EBC7078D
:102D2000C7F804E0521C0B44D2B2A242EFD3DB1D21
:102D300023F00700BDE8F0815C00002070B5104A68
:102D400000205168127814E000EB800311F8333052
:102D50006BB100EB800011EBC0040CD00025A57016
:102D600001212046FFF75AFF2570204670BD401C08
:102D7000C0B29042E8D3A9210920FFF751FA000020
:102D80005C000020044810B5408884080BF057FF11
:102D9000844200D3204610BD5C00002030B50D49B0
:102DA00001204860821EC1F808230B498860002377
:102DB000C1F80032C1F80823084C2360251D2860A3
:102DC0008860C1F808232360286006490448086029
:102DD00030BD000000E0004000F0004000F5004081
:102DE0000000F63F08F5014010B5FFF7D7FF0BF0E4
:102DF000FDFF03490148086010BD00000000F63FD8
:102E000008F5014010B5FFF7C9FF0BF0EFFF00F028
:102E100081F803490148086010BD00000000F63F3A
:102E200008F501402DE9F84F824637480FF042FA85
:102E3000DFF8D4B028B101260BF10100FF210170A9
:102E400000E000264FF48075304C4FF000082F1D35
:102E500001216160C4F80081C4F80481C4F804A5AC
:102E60002160DFF8AC901CE0D9F80000C00618D54E
:102E70000E200BF0CAFFEFF31080009072B6032112
:102E80002046C4F8041329460BF0CCFF30B939466C
:102E900020460BF0C7FF08B90FF0A3FA009800B95D
:102EA00062B6294620460BF0BDFF28B939462046B8
:102EB0000BF0B8FF0028D7D0394620460BF0B2FF00
:102EC0000028C5D10025E6B99BF801008DF8000067
:102ED000009800909DF8000008B1012500E0002551
:102EE0000BF1010181F800800321C4F80813C4F834
:102EF0000481C4F800810E200BF087FF02480FF018
:102F0000F0F92846BDE8F88F5803002000E00040A3
:102F100010ED00E010B506480FF0DFF918B13021D0
:102F20001D20FFF77DF902480021417010BD00000F
:102F3000580300200648074A818C5288914204D1E8
:102F400090F8220008B1002070470120704700006F
:102F5000222A00204C0300200149488070470000CD
:102F60004C0300200848094A818C5288914209D1BB
:102F70004FF6FF71818410F8221F19B100210170F2
:102F80000120704700207047222A00204C030020B7
:102F9000074810F8221F012907D0012101700548B8
:102FA0000349008888840120704700207047000092
:102FB000222A00204C0300200649074B8A8C5B889C
:102FC0009A4205D191F8222012B101600120704788
:102FD00000207047222A00204C03002009498A8CD7
:102FE000A2F57F43FF3B02D00021016007E091F88A
:102FF00022200449012A02D00160012070470020EC
:1030000070470000222A0020014908807047000014
:103010004C0300200549002081F822004FF6FF7084
:10302000888403490880488070470000222A0020D5
:103030004C03002005498A8C824205D1002081F88A
:1030400022004FF6FF70888470470000222A00207B
:103050000A4A10B1012807D00EE0507860B1D2F8CA
:1030600002000860D08804E0107828B190680860F9
:103070009089888001207047002070475A03002003
:10308000084A012338B1012804D113700868906000
:1030900088889081704753700868C2F80200888859
:1030A000D08070475A030020064910B1012802D091
:1030B00005E0487800E0087808B10120704700205A
:1030C000704700005A03002001490876704700004D
:1030D000DA23002001488078704700006400002057
:1030E0000148C078704700006400002070B50C46AD
:1030F0000A4905460848086000F034F918B1DE2195
:103100002720FFF78DF8064801210CF003FA054847
:10311000C0E90B5470BD000030BB0000A8000020C7
:10312000B823002064000020014901204871704745
:10313000640000202DE9F84F634D0A9C2E78002E84
:1031400078D1002A76D0002B74D0002C72D0B046F3
:1031500005F11406C5E90F0186E81C0085F8058015
:1031600085F8048085F8028085F8018085F8038061
:10317000A5F80C80A5F80E8000F06CF9064600F06A
:1031800031F9044606F010F805F064FD94F96E007C
:1031900006F08EF8E06906F073F9606906F066F9EA
:1031A00096F8330006F0A2F905F13C00406890F86B
:1031B0000D0208B105F072FF94F86B10012005F0C4
:1031C000ADFE002879D04148006805F017FF20883F
:1031D000FFF70CFD68632088FFF7F2FCA86306F197
:1031E000800088363A4F96E80E1087E80E10816905
:1031F000C7F81910C069C7F81D00883E00F030F903
:103200000146208FC2460BF02EFFA18E814200D2D4
:103210000846A871A94694F86B1004F12C000CF034
:1032200071FA94F86B1096F82380A58F082905D1C0
:1032300003E0FFE740F2531143E004210BF013FFDA
:10324000B8F1000F01D1001D80B2854200D228469E
:10325000C5B289F8075089F8085096F82300D0467F
:1032600098B14FF0010987F81890D6E92001C7E915
:10327000040194F86B000BF047FE03462A461449FC
:103280004846CDF8008005F051FC012000F04EFBCF
:1032900010480068032812D00B2810D047F84A8F36
:1032A000C7F80480C7F808800948B18A4A304180CD
:1032B0002188018096F833100171BDE8F88F4FF432
:1032C00002712720FEF7ACFF64000020A800002058
:1032D00090230020501500402DE9FC418846074608
:1032E00000F0B8F81A4C0546B807616A4E7816D552
:1032F000A06A30B36289D21C0FF077F8A06A6062CE
:10330000694601AAA06B0BF07CFA00980BF02FFA2B
:10331000C8F8000031460122A06B0BF0DFF9F80776
:103320000DD0D5E920011835401C41F10001C5E957
:103330001A0115F81809012808D001202876BDE8DF
:10334000FC8140F25F412720FEF76AFF0020F5E78D
:10335000640000200248C089C0F38020704700004C
:10336000640000200448007808B10C20704703492D
:10337000002008767047000064000020DA23002057
:103380000C4810B5017849B100F13C0100780228E1
:1033900008D04FF409712720FEF742FFBDE8104026
:1033A00000F0D0B94868D0F82002BDE8104005F020
:1033B0002DBE0000640000201A2001F8030B044811
:1033C00050F8562F0A6042684A60806888607047EB
:1033D00090230020024A9389034393815269104746
:1033E000640000200148406870470000A0000020F1
:1033F000014A0021526910476400002070B505465B
:10340000012918D8124CA1698847A0B1207990B938
:10341000E5B904F110000178C80605D4E06A007827
:10342000C00601D4012000E00020A26A2AB9628906
:103430001AB1C90601D4012070BDA1898A0703D53C
:10344000226AD278022A01D00843F4D1002070BD4C
:10345000640000200148406880307047A0000020D0
:1034600010B5FFF7BFFF0446FFF7F4FF0246417FA8
:103470001648252910D026290ED0927F252A0BD058
:1034800020290DD021290BD0232A0FD094F86A00CF
:10349000042800D1082010BD406890F8BE120EE04C
:1034A000232A03D0406890F83E0105E0416891F876
:1034B0003E0191F8631008400BF01CFD014694F8A2
:1034C0006A00BDE810400BF02DBD0000A0000020F8
:1034D0002DE9FF5F8B468146FFF7BCFF0026684C55
:1034E00007468DF808600396019620783546022835
:1034F00004D040F2E2412720FEF792FEA07B400676
:1035000006D44020FFF774FFE08940F04000E081DE
:1035100097F82300B9F1000F3AD080B105F0D4FB41
:1035200005F0AEFB58B9606A417841B10078397E48
:10353000C0F3C000884202D1012060709CE0606A44
:103540004178618121B1A06B0BF031FAA06200E0FB
:10355000A562E08940F48070E081606AF97D0078BE
:10356000C0F38000884207D003A800F091F9E089F9
:1035700040F48060E08100E00126606A397E0078D6
:10358000C0F3C00088420DD102A800F037F909E06D
:1035900008B105F093FBA078401CA070E08940F4CE
:1035A0000070E081DFF8D8A097F822000AF13C0A09
:1035B00090B1FFF717FF33490D76D7E91E23C1E914
:1035C000042390F86A000BF09FFC0346FB222D4970
:1035D0002846009505F0AAFA4FF00008BBF1000F4D
:1035E00004D1A1780120FFF709FF20B105F02AFFDF
:1035F0004FF0010802E0002000F0D6F99DF8080025
:1036000018B101A90220FFF767FE1E48BA8A494691
:103610004A305EB12AB9B0F8052012B9B0F80720D7
:1036200022B1B0F80920521CA0F8092029B130F8C5
:10363000051F491C0180A57003E030F8071F491CD5
:1036400001800F483C3001F0E3FA039840B10BF0E1
:103650008EF8DAF80410401C057208220BF0E1FF26
:10366000019830B1DAF804100572102201980BF0BD
:10367000D8FFB8F1000F01D000F064F8BDE8FF9F5B
:1036800064000020902300202DE9F84388468146FD
:10369000FFF7E0FE294D04462878012804D040F2C7
:1036A0006E412720FEF7BCFD207C0027012628B1B3
:1036B000277400210420FFF78DFEA674296A08787C
:1036C000C043800709D1A07D88BB0220FFF782FE9E
:1036D000286A0078C043800729D0286A407810B152
:1036E0000220A07500E0A67594F8230098B1FFF7BA
:1036F00079FE13492D7A0E76D4E92023C1E90423FB
:1037000090F86B000BF000FC03462A460C4930464B
:10371000009705F00BFA38EA090004D000210846AA
:10372000FFF76CFE28B1BDE8F84300F00BB80320AA
:10373000D7E7BDE8F843002000F0F8B864000020A7
:103740009023002010B505F05FFB05F083FA0E4CC6
:10375000E089FFF74DFE0D48007E70B10B484A38F6
:1037600050F84A1FC16041680161816841610748A2
:103770000222074919300BF068FFE269217960786D
:1037800090470020207010BD64000020DA23002044
:10379000B9B30000084810B50078022804D040F200
:1037A0004E212720FEF73CFD04490120C872BDE8E8
:1037B0001040FFF7C7BF000064000020DA2300209C
:1037C00030B404460C48007A0BB1001DC0B23AB9BF
:1037D000FF2805D194F86B2094F86A309A4209D0FA
:1037E00021B194F86B1030BC05F050BEFF2094F866
:1037F0006A10F8E730BC7047640000202DE9F04102
:103800000746FFF727FE214C05460126616A087826
:1038100000F0030001280CD002280AD003281BD195
:103820002E74E08940F40060E0810120FFF7D2FDB2
:1038300012E0487880B1E18941F40061E181A16A38
:10384000002918D0FB2818D8607920B1BDE8F041D4
:103850002020FFF7CDBD3E70287E012812D02E76A5
:10386000606A4078002806D0F5E92001401C41F14B
:103870000001C5E90001BDE8F081207940F01000A9
:103880002071F8E700202876EAE7000064000020B5
:1038900070B50546FFF7DEFD0446807D00282DD07B
:1038A00002280CD11B482946406B0AF0EFFE30B3CA
:1038B000D4E91E01401C41F10001C4E91E010025AC
:1038C000A575A07C20B1A57400211020FFF782FD12
:1038D000607C70B16574FFF745FB98B1002108204A
:1038E000FFF778FDD4E91E01401C41F10001C4E955
:1038F0001E01E07D01280AD00120E07570BD40F274
:10390000DD3101E04FF47D712720FEF789FCE5757C
:1039100070BD00006400002003480078002801D03A
:10392000FFF710BF70470000640000202DE9F04150
:103930000646FFF757FD8046FFF78CFD184C0546FD
:103940003246E06A606295F8233001214046FFF775
:1039500037FF95F82300002770B1206B05F0CAFCF3
:10396000104801210176D5E92012C0E90412216B2B
:10397000606A05F02DF904E0606A05F0BBFC05F013
:1039800069F916B9384605F065FB002198F86A20F8
:10399000084605F039FD02202070BDE8F0810000E6
:1039A00064000020902300202DE9FC470446FFF727
:1039B00051FD0546FFF716FD00278DF800700646FD
:1039C000DFF8649195F8233022463946FFF7F8FE78
:1039D000A87D4FF00108A9F1200440B1012820D0B2
:1039E00002282FD003283BD040F2FF2157E0A079D6
:1039F0005021ADF8040088534846FFF7DDFA30B196
:103A00008020216AFFF7E6FC85F811802CE06A46E9
:103A100001A9606B0BF090FA206210B195F85B1071
:103A200011B1424820621FE09DF8001021B90780C3
:103A3000877001210BF06EFDBDF80410206A0BF0B9
:103A4000F1FC11E0B6F85000ADF804006A4601A997
:103A5000606B0BF071FA206230B940F2E9211EE090
:103A60004846FFF7A9FAC0B1206A0823017801F09F
:103A7000F7010170EA7D03EAC202114301F0FB0184
:103A800001702A7E042303EA8202114301F0EF0150
:103A90000170C943890705D007E040F2F2212720D1
:103AA000FEF7BEFBC07802280FD0606B0AF0ECFE78
:103AB00008B101210AE0206A0078C043800704D0E1
:103AC000FFF738FA80F0010100E00021206A027857
:103AD00042EA0111017095F8221081B1417871B16B
:103AE000206B05F007FC114828380776D5E91E122F
:103AF000C0E90412216A206B05F06AF803E005F0C2
:103B0000F9FB05F0A7F896F86B200121002005F0DD
:103B10007BFC84F80380216A0A8822828978A17458
:103B200084F80080BDE8FC8784000020B8230020D2
:103B300095B70000D1B4000089B6000019B90000A3
:103B400004494A78824203D9084490F842017047F8
:103B500000207047482A002004494A78824203D94D
:103B6000084490F84A01704700207047482A002016
:103B700004494A78824203D901EB00108230704731
:103B800000207047482A0020054A01EB410102EB62
:103B900041010268C1F80A218088A1F80E0170472E
:103BA000482A00202DE9F0410E4607461546062119
:103BB00030460BF0FAFA0D4C60B1002004E02118F9
:103BC000401C81F83A51C0B261788142F7D8012097
:103BD000BDE8F081314638460BF0BDF9082803D026
:103BE000204480F83A51F2E70020F1E7482A00200B
:103BF00004494A78824203D901EB0010801C7047C7
:103C000000207047482A002010B54FF4C5720021EB
:103C100005480EF064FC05480021017041704FF426
:103C20006171418010BD0000482A0020500300202F
:103C300001490870704700005003002001480078D7
:103C400070470000500300200B4B10B55C78844295
:103C500010D9184490F80201C0EBC000184490F845
:103C600052310B70D0F853111160B0F857019080A9
:103C7000012010BD002010BD482A00202DE9F0478A
:103C8000984691460F46064600F0B0F804460828CC
:103C900006D000F097F8082802D01220BDE8F0877F
:103CA0001F4D6878082838D2082C13D12C78601C56
:103CB0002870082C03D343212820FEF7B1FAC4EB67
:103CC000C40028443968C0F85311B988A0F85711C6
:103CD00080F852616E781022701C687005EB061730
:103CE000B81C49460BF039FA07F182001022414610
:103CF0000BF033FA102140460BF057FA35441021EF
:103D000085F84201484605F22B150BF04EFAE8778C
:103D100005F8294C0020E873C0E70720BEE7000043
:103D2000482A0020064810B54078401E44B204E0FE
:103D3000E0B200F0BDF8641E64B2002CF8DA10BDE9
:103D4000482A0020014840887047000050030020A6
:103D500038B14AF2B811884203D80349488001209B
:103D600070470020704700005003002005494A7842
:103D7000824203D9084490F83A0108B10020704704
:103D800001207047482A0020014948707047000010
:103D9000500300200246094810B500780B4658B180
:103DA0000748417841B10BB1801C01E004488230E2
:103DB00004F016FE012010BD002010BD50030020AD
:103DC000482A0020084910B5034600204A7806E03A
:103DD0000C1894F802419C4204D0401CC0B28242AC
:103DE000F6D8082010BD0000482A0020F0B51A4C73
:103DF0000346002025782BE0C0EBC00222440F7858
:103E000092F853C192F8526187EA0C075E403E4433
:103E10004F7892F854C187EA0C073E448F7892F8A5
:103E200055C187EA0C073E44CF7892F856C187EA1D
:103E30000C073E440F7992F857C192F8582187EA4F
:103E40000C073E444F795740F74204D0401CC0B2A3
:103E50008542D1D80820F0BD482A002070B505461B
:103E6000FFF7B0FF082820D1104C2078401EC0B2C8
:103E70002070A84219D0C0EBC000C5EBC50120449A
:103E8000214400F5AB72D0F85201C1F852011088FC
:103E9000A1F85601907881F858012078FFF792FF39
:103EA000082802D0204480F8025170BD482A002022
:103EB0002DE9F0471D4C0646A7196078401EC5B293
:103EC000657097F802A1AE422AD004EB051904EB05
:103ED000061809F1020108F1020010220EF085FA1D
:103EE00009F1820108F1820010220EF07EFA6019B9
:103EF00005EB450290F8021187F8021106EB460126
:103F000004EB420204EB4101D2F80A31C1F80A3154
:103F1000B2F80E21A1F80E2190F83A0187F83A0183
:103F20005046BDE8F047FFF799BF0000482A00203F
:103F30002DE9F047044600F180054FF0010971B109
:103F400004F1A6077E1E012929D002294ED003299B
:103F500023D139463046BDE8F0470BF088B94FF41D
:103F60003A7200210EF0BBFA85F825902449E966E3
:103F700020460721296710F8EC1F21F00401017089
:103F8000FE2085F8A6007F2068761E48A8600020E5
:103F9000C5E90000202084F89402BDE8F0874FF0C6
:103FA0000008A4F8268284F81B82216916480A4674
:103FB0000844B0FBF1F0C4F8C40040F6B830A4F8EF
:103FC000C800638B284600F021F8394630460BF0D4
:103FD0004EF90EF0E2F918B1606903F085FF10B1F7
:103FE00084F80D82D9E784F80D92D6E70169B4F818
:103FF000CA32D4F8C4222846BDE8F04700F006B81B
:104000002F4904C400E0FCFF7FC3C90110B50024A0
:10401000A0F84C4030F8504F4C43B4FBF2F420F879
:10402000104940F27124634302EB03135B1EB3FBA0
:10403000F2F3C381094BB3FBF2F35B1C8382038968
:10404000634302EB03135B1EB3FBF2F343600368AD
:104050004B43B3FBF2F1016010BD0000005A620255
:10406000024991F900100BF0B3B80000680300207A
:1040700008B57F208DF80000684605F0EBF940B1E7
:1040800005484078404241B29DF900000BF0A0F88D
:1040900008BD9DF9000008BD68030020014A1070AA
:1040A00051707047680300200CB504A1D1E90001EC
:1040B000CDE90001684600F005F80CBDFFFFFFFFE9
:1040C0001F0000000549FF220A700A460368C2F873
:1040D0000130007950710020087070476A03002099
:1040E00070B590F8322090F83130012403FB0121A3
:1040F0002522B1FBF2F302FB131100EBD10280F891
:10410000321001F0070392F8262004FA03F31A4252
:1041100004D000BF80F83310002070BD90F830202C
:10412000B1FBF2F302FB1311491CC9B20023C518FD
:1041300095F82B208A4212D395F82650002200BF12
:1041400004FA02F6354201D0491EC9B221B1521C0F
:10415000D2B2082AF4D304E002EBC301DAE7891AE9
:10416000C9B25B1CDBB2052BE1D31F2070BD000080
:1041700070B5491C0023C9B20124C518AA798A4226
:1041800012D395F80150002204FA02F6354201D00C
:10419000491EC9B221B1521CD2B2082AF4D305E09B
:1041A00002EBC300C0B270BD891AC9B25B1CDBB29E
:1041B000052BE2D39D214620FEF732F8417841B12C
:1041C000C0782B2803D2044A105C884201D1012018
:1041D00070470020704700009EA5010010B5012225
:1041E000C1702B2902D2064A525C06E0FF2904D096
:1041F00040F274412A20FEF713F8427010BD00000F
:104200009EA501000449897C490700D408B100201B
:104210007047012070470000702900200348807C0F
:10422000800701D4012070470020704770290020CA
:104230000348807CC00701D00020704701207047F0
:10424000702900202DE9FE4388469946154604460C
:1042500069460AF099FEE0BB019E002780367DB1D9
:104260002046FEF7C3FC04000ED029460AF0DEFA11
:1042700018B11B494988A94208D20020BDE8FE8335
:10428000012086F8240024E0672125E0014602AAE7
:1042900020460AF0C4FA02980780877096F8241026
:1042A00009B14FF0020841460BF034F902982A4652
:1042B0004946C01C0EF099F8204629460AF06DFACE
:1042C00048B168460BF081F90198A0F8127286F89F
:1042D00024700120D2E77C212B20FDF7A1FF0000F4
:1042E00070290020094882B0007A8DF800000098FB
:1042F00000909DF80000002805D1022204490348DF
:1043000002B00BF08EB902B070470000882900207F
:10431000697601002DE9F84FDFF874915D4F83460F
:104320004FF0010A002678683546007A8DF80000C3
:10433000009800909DF80010102906D199F81310EC
:1043400019B1B9F81400002873D08DF800606846E0
:1043500000F004F99DF800100029F8D1002868D079
:104360000446007A8DF80000009800909DF80080C7
:1043700004F108000521009001704046B8F1080FD3
:1043800042D007DC02280DD0032817D0B8F1040F63
:1043900005D11DE00F2852D0B8F1100F57D040F2D0
:1043A000472163E0626832B15946204690470420B5
:1043B00060F3070510E04FF4E07157E0626822B146
:1043C000594620469047054606E040F2C9114DE0A7
:1043D0006168B1B120468847C5F30720012848D05D
:1043E000EFF3108072B6217A8DF8001000990091D9
:1043F0009DF80010052940D0A1B366F3070590B3DE
:104400003FE040F2D31131E060685D4698B1048826
:104410002046FEF7EBFB80B10B212970A5F8034085
:10442000A5F805A085F802A000210AF096FA04205C
:104430003E61BDE8F88FE32118E0C52116E01521A3
:104440008BF80010D4F80910CBF80310AFE712482E
:10445000026822B1606838B100885946904702204E
:104460003E61E6E709E00BE040F23D211020FDF758
:10447000D7FE00984146017003E026723E61BEE718
:1044800062B615F0FF0F3FF44EAFE8B2D1E700007F
:10449000702900209C290020AC00002001490870F0
:1044A00000F0BEB870030020024901480860704760
:1044B000B9C40000AC00002038B50D0014D0A880AD
:1044C00000216972FEF77CFB04460AF08AF970B19C
:1044D00001466A4620460AF0A2F9E88050B1FB285E
:1044E0000BD94FF4907133E04FF4887130E040F213
:1044F00019112DE04FF48F712AE000980AF0B6FFF1
:10450000012804D0022802D04FF4987120E02872CC
:104510002868A8B10099EA88C91C0DF066FF2046FA
:104520000AF027F978B1204600210AF016FA68B19E
:104530000948C17C002902D0818A491E818238BD88
:1045400040F2371104E04FF49E7101E040F2411156
:104550001020FDF765FE00007029002038B50346E5
:104560001749002018700869012440B1027A8DF8BB
:104570000020009A00929DF80050002D11D148684B
:10458000027A8DF80020009A00929DF80050012DCB
:1045900006D0EFF3108272B605684D6012B102E0EA
:1045A000002038BD62B6027A8DF80020009A009291
:1045B0009DF800500DB1086138BD1C7038BD000079
:1045C0009C29002038B5D0B1416000F108010A7083
:1045D000EFF3108372B6104C0460211F4A684AB191
:1045E000127A8DF80020009A00929DF80050012D5B
:1045F00000D10C600A68106008602BB105E040F241
:1046000072211020FDF70CFE62B604480078BDE868
:10461000384009F0DBBA0000A02900207003002018
:1046200010B51422002108480DF059FF0648122247
:10463000002114380DF053FF034801210173011DBF
:104640004160016010BD00009C290020F0B4A2F878
:1046500009000C89A2F80B408B89A2F80D3048891B
:10466000A2F80F00CD89A2F81150CE8DAE4208D12C
:104670004D8D854205D10D8E9D4202D18B8DA34279
:1046800001D0012300E00023D3744885B2F8110063
:10469000C885B2F80B008885B2F80D000886F0BC1A
:1046A000014910460AF0B7BFD5C60000A2F80900BC
:1046B000888AA2F80B00C88AA2F80D00088BA2F81D
:1046C0000F00488BA2F81100014910460AF0A0BF64
:1046D00019C7000038B5A0F11605C07C0C4600F0E3
:1046E0000100FFF78FFD002108B100910FE01120BC
:1046F000207055F81F0FC4F802006868C4F806005F
:1047000028896081A87A2073024840680090BDF82B
:10471000000038BDA0C7000070B586B00E46044644
:10472000FFF77CFD002558B3A4F5BA702572048804
:1047300003A920460CF078FD08B1FC2117E0ADF884
:104740000040BDF81200ADF80200BDF81400ADF84D
:104750000400BDF80E00ADF80600BDF81000ADF87D
:10476000080068460CF09CFD20B140F205112C2099
:10477000FDF756FDCDF80050BDF8000006B070BD45
:10478000182006F8030B54F8090F30606068706059
:1047900020893081014800680090EDE7A0C7000043
:1047A000040000000400000070B50C4DA5F10804E1
:1047B00008210A48FDF7D8FD286810B96868002864
:1047C000F6D000F013F8206000F010F86060216867
:1047D000002901D10028F4D070BD0000B8000020ED
:1047E000014800F009B80000B0000020014800F0C6
:1047F00003B80000B800002010B5D0E90021094B33
:10480000094C53435443514081EAB21282EA412297
:104810004FEAF141C0E9002143EAD46303EB83038B
:10482000184610BD6037EFC6BB79379E70B5044699
:1048300040680D46012390F89E20002180300AF048
:10484000BAFBD0B128460AF0B7FD6168A1F8BC02F6
:104850006168B1F89420801A00B247F6FE72904267
:104860000DDC00280BDD284601F2BE210AF09FFD79
:1048700061680A2081F89E000AE0012070BD2820AE
:1048800081F8BD00606802220249B4300AF0C9FE16
:10489000002070BD3D79010070B5044640680D46AA
:1048A000012390F89E20002180300AF084FBE8B3B9
:1048B000002128460AF083FDC8B36168B5F80D00F1
:1048C000A1F8BC026168B1F89420801A00B247F6E2
:1048D000FE72904234DC002832DD28460AF099FD51
:1048E0000AF05FFB064660683146C0F8C46228796A
:1048F0000AF052FC6168A1F8BE02B5F80500314625
:104900000AF046FC6168C1F8C00228460AF084FD3E
:104910006168A1F8C80228460AF081FD6168A1F823
:10492000CA0261680D2081F89E0012E000E001E0FB
:10493000012070BD29462046BDE870400AF0BDBF89
:10494000282081F8BD00606802220349B4300AF0D3
:1049500068FE002070BD00003D79010070B504467E
:1049600040680D46012390F89E20002180300AF017
:1049700022FB70B9606890F89E20132A09D00123A9
:10498000052180300AF017FB08B1082070BD012016
:1049900070BD606890F8DC0010B920460AF077FF1F
:1049A0006168284601F50A710AF052FD61682846DF
:1049B00001F58C710AF043FD60680188A0F8D512FA
:1049C0006168284601F2D7210AF03DFD616828465A
:1049D00001F2DF210AF030FD60680222054900F58E
:1049E00033700AF01EFE6168152081F89E000020D9
:1049F00070BD0000DD7A010070B54468091D002516
:104A000094F88C008034C00701D0012070BD486844
:104A100009680C4B41F607021940E1661040206717
:104A20001B2104F16C000BF0ACF8A4F8585094F87A
:104A30005A00401C84F85A00E06840F00100E06031
:104A4000002070BD2F4904F710B5041D03F078FE57
:104A5000034B41F60702184011402060616010BD11
:104A60002F4904F72DE9F843037840680F1D00F142
:104A7000800500F5A57406464FF000086A7F0721FF
:104A800028460AF098FAE0B13968184B786819405E
:104A900041F60702E966104028671B2105F16C000A
:104AA0000BF06FF885F8568085F81D8094F860103B
:104AB00040468DF80010009900919DF8001091B9C2
:104AC00002E00120BDE8F8833188A4F8621084F880
